:020000040800F2
:10000000C8CB0220C1010008591F0008911C00083C
:10001000931C000825040008A9290008000000001E
:100020000000000000000000000000009B2200080B
:100030006D05000800000000412100083123000880
:10004000DB010008DB010008DB010008DB01000820
:10005000DB010008DB010008F5050008DB010008F2
:1000600003060008090600080F060008DB01000867
:10007000DB010008DB010008DB010008DB010008F0
:10008000DB010008DB010008DB010008DB010008E0
:1000900029040008DB010008DB0100081506000840
:1000A000DB010008DB010008DB010008DB010008C0
:1000B000DB010008B1240008DB010008DB010008B7
:1000C000DB010008DB010008DB010008DB010008A0
:1000D000DB0100089D290008DB010008DB010008A6
:1000E000FB050008DB010008DB010008DB0100085C
:1000F000DB010008DB010008DB010008DB01000870
:10010000DB010008DB010008DB010008DB0100085F
:10011000DB010008DB010008DB010008DB0100084F
:10012000DB010008DB010008DB010008DB0100083F
:10013000DB010008C9050008DB010008DB0100083D
:10014000DB010008DB010008DB010008DB0100081F
:10015000DB010008DB010008DB010008DB0100080F
:10016000DB010008DB010008DB010008DB010008FF
:10017000DB010008DB010008DB01000800000000D3
:10018000DB010008DB010008DB010008DB010008DF
:10019000DB010008DB010008DB010008DB010008CF
:1001A000DB010008DB010008DB010008DFF80CD0F0
:1001B00000F09EF800480047B9330008C8CB022081
:1001C0000648804706480047FEE7FEE7FEE7FEE7F1
:1001D000FEE7FEE7FEE7FEE7FEE7FEE7A1240008F4
:1001E000AD0100082DE9F05F0546002092469B46D0
:1001F00088460646814640241BE02846414647463D
:10020000224600F064F853465A46C01A914110D372
:1002100011461846224600F04BF82D1A67EB0108EC
:100220004F4622460120002100F042F817EB00095A
:100230004E41201EA4F10104DFDC484631462A4627
:100240004346BDE8F09F40EA01039B0703D009E065
:1002500008C9121F08C0042AFAD203E011F8013BB2
:1002600000F8013B521EF9D2704730B50446002019
:10027000034600E05B1C934203D2E05CCD5C401B74
:10028000F8D030BD30B50B460146002020220124B5
:1002900009E021FA02F59D4205D303FA02F5491B54
:1002A00004FA02F52844151EA2F10102F1DC30BD6A
:1002B000202A04DB203A00FA02F100207047914026
:1002C000C2F1200320FA03F3194390407047202A1B
:1002D00004DB203A21FA02F00021704721FA02F3F0
:1002E000D040C2F1200291400843194670470000F7
:1002F000064C074D06E0E06840F0010394E8070073
:1003000098471034AC42F6D3FFF754FF5061000811
:100310007061000870B58C1810F8015B15F00703C8
:1003200001D110F8013B2A1106D110F8012B03E08E
:1003300010F8016B01F8016B5B1EF9D12B0705D496
:100340000023521E0DD401F8013BFAE710F8013BDF
:10035000CB1A921C03E013F8015B01F8015B521EFB
:10036000F9D5A142D8D3002070BD000070B50B4C68
:1003700000252088012800D125806088012802D12D
:10038000658000F00DF8A088012802D1A58000F05A
:100390002DF8E088012800D1E58070BD3C000020E8
:1003A00070B50F4C0025A088401C80B2A080322878
:1003B0000DD3A58002210B4800F09CFD0A4E402180
:1003C000304600F097FD7115304600F093FDE0884F
:1003D000401C80B2E080642800D3E58070BD00003E
:1003E0000A000020000402400018024010B502F08C
:1003F000FDF80B4800224188491C89B2418014292C
:1004000001D3428003E00A2901D0002907D10178F5
:10041000002904D00270BDE8104002F005B910BDFB
:1004200020000020FEE70000014800F0ADBA000007
:10043000001A002010B5DDE90202049C0C80079927
:10044000197008990170002004A90B181B7F135420
:10045000401CC0B20828F8D310BD000010B51278B7
:1004600006920978059100880290002002AA195C82
:100470000244401CC0B211760828F7D3064800F0A9
:100480006DFA0028FAD0054B08AA02A9024800F02C
:100490008CF9012010BD0000001A0020040000208B
:1004A00030B4D0F8A020D0F8A4404FF0FF3352F879
:1004B000212024F81130C2F307420121831883F868
:1004C000B410D0F8B03030BC114618472DE9F04FC9
:1004D0009946DDE90A5A4FF0FF3BDDF824C041E0C0
:1004E000AB1A5BB20C78002B03DD00BF04FA03F4F7
:1004F00003E0C3F1000324FA03F4E6B202DDC5F120
:10050000080301E0C2F10803DCB2844200D90446CA
:1005100005EB0408FF2707FA08F3C5F10805EF40CB
:100520003B439CF800509E431D4035432244D2B2C9
:100530008CF80050072A07D90022B9F1000F01D02A
:100540005B4600E00123194408F0FF05072D07D999
:100550000025BAF1000F01D05B4600E001239C4466
:10056000001BC0B20028BBD1BDE8F08F704700006F
:10057000411C0CD00749B1F90020904201D1521E14
:100580000A80054A00EB4000002102F830104FF0CD
:10059000FF30704754000020CC1A00200149486108
:1005A000704700000090024002680021002A08DB2A
:1005B0000268120405D40268D20502D50068C0F3AF
:1005C0000D4108467047000010B5094C02E000BF1D
:1005D00002F0ECFE2068FFF7E7FF0028F8D140208A
:1005E000FFF7DCFFBDE810404FF48030FFF7D6BFC7
:1005F000A0190020012000F059BB4FF4805000F0FA
:1006000055BB042000F052BB082000F04FBB102067
:1006100000F04CBB10B5802000F048FBBDE8104056
:10062000202000F043BBFEE710B5002003F080F867
:10063000012003F07DF8012010BD00002DE9F047F6
:1006400086B0012410270226CDE90074DFF8B8A097
:10065000CDE902466946504600F034FB4FF4B650EF
:10066000CDE90004DFF8A480CDE9024669464046A2
:1006700000F028FB40F20340CDE90004CDE902463A
:100680006946234800F01EFB4EF67E00CDE90004CB
:10069000CDE9024669461F4800F014FB7820CDE9F9
:1006A0000004DFF87490CDE902466946484600F040
:1006B00009FB002548F21C00CDE9000569461748F2
:1006C000029500F0FFFACDE90065694614480295ED
:1006D00000F0F8FACDE9007569464046029500F051
:1006E000F1FACDE9004569465046029500F0EAFA74
:1006F0000420CDE9000569464846029500F0E2FA7B
:1007000006B0BDE8F087000000000240001802407B
:100710000004024000240240002802400020024061
:10072000000C024070B50546D0F83C01008818B3B3
:1007300000242E1996F8B4000F2818D028680078E5
:10074000A04214D096F8440140B9D5F8382112B12E
:10075000214628469047012086F8B40096F84401C7
:100760002146401E86F84401284602F039FE641CEA
:10077000E4B2802CDDD370BDB5F93401FFF7F8FE8B
:10078000A5F8340170BD90F82020012A07D0022A74
:1007900005D0416A41F48021416201207047006820
:1007A00042690A43426100207047F0B590F820503A
:1007B0000468A468012D05D0022D03D0416A41F4DC
:1007C000802153E014F0406F01D1E5004BD5C4F314
:1007D0000164022C03D9416A41F4000146E001257D
:1007E000A5401D608D684FF4C0739DB1CE68354340
:1007F0004E6845EAC605066803EB0417F5514FF449
:10080000C275076805EB04150E697E51097D012943
:1008100005D009E00E88CD6845EA4655EBE701684A
:100820004E5946F480764E511179D2F805504FF466
:10083000C67641EA0525016806EB04168D5111784C
:10084000D2F801204FF4C47541EA0221026805EB99
:1008500004155151006803EB0411425842F00102A3
:1008600042500020F0BD416A41F400114162012074
:10087000F0BD704730B590F82040012C05D0022C17
:1008800003D0416A41F480215DE00468002955D01D
:100890002469A40754D04FF4D874056804EB0114FC
:1008A0002D5915F00405956005682D594ED0ED08B9
:1008B000556005682C5904F00204D4604FF4DA74D2
:1008C000056804EB01142D5905F00F051561056845
:1008D0002D59C5F30725956105682C59240C5461E1
:1008E0004FF4DC72046802EB0112A4581C70046817
:1008F000A458240A5C700468A458240C9C700468F2
:10090000A258120EDA704FF4DE72046802EB011284
:10091000A4581C710468A458240A5C710468A45883
:10092000240C9C710468A258120EDA71006881B11F
:10093000016941F020010161002030BDE468A8E7B1
:10094000416A41F400114162012030BD6D0D156016
:10095000AFE7C16841F02001C160EDE70246002029
:1009600092F82010012901D002290CD111688A685F
:10097000520100D501208A68120100D5401C896807
:10098000C90000D5401C70472DE9F05F054600689E
:1009900000244669D0F804908768D0F80CB0D0F8ED
:1009A00010A0D0F81880F10748D0F90714D0012121
:1009B0008160B80703D5284600F018F90CE07807E5
:1009C00002D54FF4006407E0380702D54FF4805495
:1009D00002E0284600F009F9F80516D529684FF419
:1009E00080708860B80503D5284600F001F90CE056
:1009F000780502D544F4005407E0380502D544F4E4
:100A0000804402E0284600F0F2F8F80316D5296881
:100A10004FF480308860B80303D5284600F0EAF828
:100A20000CE0780302D544F4004407E0380302D513
:100A300044F4803402E0284600F0DBF8300707D5A4
:100A40005FEACB6004D52968102044F40074C860C4
:100A500070074FF0080707D55FEA0B7004D52868C8
:100A6000C760284600F08EF8B00706D52868C06831
:100A7000800702D0284600F087F8700607D55FEAA5
:100A8000CA6004D52968102044F480640861B00667
:100A900007D55FEA0A7004D528680761284600F088
:100AA000A1F8F00606D528680069800702D028461C
:100AB00000F099F8B00308D55FEAC96005D5296848
:100AC00010204860284600F08FF8F00307D55FEA51
:100AD000097004D528684760284600F08CF8300477
:100AE00046D55FEA497040D5F00504D55FEAC87085
:100AF00001D044F00104B00504D55FEA887001D547
:100B000044F00204700504D55FEA487001D544F052
:100B10000404300529D518F0700F26D008F07000B5
:100B2000402815D006DC102809D020280AD030280B
:100B300016D10AE050280ED0602811D10EE044F002
:100B400008040DE044F010040AE044F0200407E03B
:100B500044F0400404E044F0800401E044F4807474
:100B60002868816921F0700181612968042048604A
:100B7000002C05D0686A204368622846FFF779FE9A
:100B8000BDE8F09F7047000010B5134B8EB00446CF
:100B9000A3F11C020021FFF76DFE00281AD10F49B6
:100BA0000120087002212046FFF7EDFD0A492422AA
:100BB0001C3902A8FFF747FB0CA8411ECDE9001025
:100BC000831E22460BA90020FFF734FC0BA9044822
:100BD00002F0D3F90EB010BDD81900200800002093
:100BE000281700207047704770477047704770475C
:100BF00070477047704770472DE9F0410446876D94
:100C000000F080F9064694F835000025022806D049
:100C10008020606584F834500120BDE8F0812068B0
:100C2000016821F0160101602068416921F080010E
:100C30004161206C08B9A06C20B12068016821F0E6
:100C4000080101602068016821F0010101600BE0EA
:100C500000F058F9801B052806D92020606504F8AB
:100C6000345F03206070D8E720680068C007EFD1C8
:100C700094F85C103F208840B86004F8345F01208D
:100C800060700020C9E790F83510022903D0802158
:100C9000416501207047052180F835100068016822
:100CA00021F001010160002070477047044910B530
:100CB0000A68024202D00860FFF7F7FF10BD00008B
:100CC000143C01402DE9F84FDFF8F4A10022012483
:100CD0000AF1040B03254FF00F090BF1040E00BFBE
:100CE0000B6804FA02F63340B3426FD10F7907F074
:100CF0000307012F01D0022F16D187684FEA42085F
:100D000005FA08FC27EA0C07D1F80CC00CFA08FC1D
:100D10004CEA070CC0F808C04768B7430E79C6F321
:100D2000001696403E4346600E79F643B6070AD059
:100D3000C7684FEA420C05FA0CF6B7438E6806FA0C
:100D40000CF63E43C6600E7906F00306022E10D163
:100D5000D60800EB8608D8F8206057074FEAD76C12
:100D600009FA0CF7BE430F6907FA0CF73743C8F8C6
:100D7000207006684FEA420C05FA0CF7BE430F7963
:100D800007F0030707FA0CF7374307604E68F600D1
:100D90001CD54C4E376847F480473760366822F0E0
:100DA000030706F480460096474E07EB060CDCF876
:100DB000086897073F0F09FA07F826EA0806DFF8E0
:100DC0000C81404503D14FF0000841E072E0DFF8AC
:100DD0000081404502D14FF0010839E0DFF8F4808E
:100DE000404502D14FF0020832E0DFF8EC80404588
:100DF00002D14FF003082BE0DFF8E080404502D13C
:100E00004FF0040824E0DFF8D880404502D14FF0CD
:100E100005081DE0DFF8CC80404502D14FF0060800
:100E200016E0DFF8C480404502D14FF007080FE01C
:100E3000DFF8B880404502D14FF0080808E0DFF83D
:100E4000B080404502D14FF0090801E04FF00A0898
:100E500008FA07F848EA0608CCF80888DAF80060CB
:100E60005746D1F804C09E435FEACC3C00D51E43F0
:100E70003E60DBF800605F46D1F804C09E435FEA45
:100E80008C3C00D51E433E60DEF800607746D1F80A
:100E900004C09E435FEACC2C00D51E433E60084F41
:100EA0000C373E68D1F804C09E435FEA8C2C00D515
:100EB0001E433E60521C102AFFF412AFBDE8F88FAB
:100EC000003C014044380240003001400000024034
:100ED0000004024000080240000C024000100240E2
:100EE0000014024000180240001C02400020024092
:100EF00000240240426921EA02030A4043EA024117
:100F000081617047014880687047000044000020FC
:100F100070B5040011D021684CF6CC4008602168FF
:100F200045F255500860D4E9000141602168A0688D
:100F30008860FFF7E7FF05460DE0012070BD00BFA8
:100F4000FFF7E0FF401B302805D92068C068800704
:100F500001D0032070BD2068C0688007F0D12168EF
:100F60004AF6AA200860002070BD00684AF6AA214F
:100F70000160002070470000024881680278114437
:100F800081607047440000200B4810B5016841F4AF
:100F900000710160016841F480610160016841F401
:100FA00080710160032000F057F80F2000F006F870
:100FB00000F024F8002010BD003C024070B50D4D3B
:100FC00004464FF47A712878B1FBF0F00A490968B9
:100FD000B1FBF0F000F0F4FA48B9102C07D200226F
:100FE0002146501E00F018F800206C6070BD0120F2
:100FF00070BD000044000020500000207047002811
:1010000009DB00F01F02012191404009800000F13E
:10101000E020C0F800117047F0B40E4B1B680C467E
:10102000C3F30223C3F10705042D00D90425191DBC
:10103000072901D2002300E0DB1E012606FA05F194
:10104000491E214099409E40761E16403143F0BC17
:1010500001F0BCBC0CED00E0064900F00702086896
:101060004FF6FF03184040EA0220034A104308608D
:10107000704700000CED00E00000FA052DE9F04794
:101080000E46050065D0DFF81481D8F80000F7B2ED
:1010900000F00F00B04207D288F80070D8F80000C6
:1010A00000F00F00B04254D128683D4C810712D5A2
:1010B000400703D5206840F4E050206028780007FE
:1010C00003D5206840F4604020602068A96820F0C3
:1010D000F000084320602878C0072DD030496868A8
:1010E0000839012812D0022813D0032811D009682A
:1010F000890700292DDA216821F0030101432160CD
:10110000FFF700FF814641F2883A0EE00968890343
:10111000EFE709688901ECE7FFF7F4FEA0EB0901AE
:10112000514502D90320BDE8F0872068696800F0C6
:101130000C00B0EB810FEFD1D8F80010404601F061
:101140000F01B14207D90770006800F00F00B042EC
:1011500001D00120E7E72878400705D52068E96835
:1011600020F4E050084320602878000706D5206866
:10117000296920F4604040EAC100206000F038F89E
:101180002168084AC1F30311515CC8400649086050
:1011900006480068FFF712FF0020C4E7003C024049
:1011A00008380240DE5E00085000002048000020A1
:1011B0000448054900680968044AC1F38221515C6A
:1011C000C84070475000002008380240EE5E00081A
:1011D0000448054900680968044AC1F34231515C7A
:1011E000C84070475000002008380240EE5E0008FA
:1011F000154810B5006810F00C02144813D01449BB
:10120000042A0FD0082A0ED10F4C241F226823680D
:1012100002F03F025B0207D52068C0F38810A0FBF4
:10122000010106E0084610BD2168C1F38811A1FB49
:1012300000010023FEF7D6FF2168C1F30141491CDC
:101240004900B0FBF1F010BD083802400024F40062
:1012500040787D012DE9F84F04006ED02078DFF84A
:101260004C93C007A9F104054AD009F104000168B4
:10127000C1F38101012908D00068C0F38100022870
:101280000AD1D9F80000400206D52868800337D576
:1012900060680028E1D033E06068B0F5803F10D08E
:1012A000B0F5A02F286810D020F48030286028687E
:1012B00020F4802028606068A8B1FFF723FE06466E
:1012C0000DE0286840F48030F4E740F48020286086
:1012D000F7E700BFFFF716FE801B642873D8286865
:1012E0008003F7D50CE0FFF70DFE064605E000BFD2
:1012F000FFF708FE801B6428F0D828688003F7D425
:101300002078DFF8AC8280074FF0000A3ED5A7486E
:10131000001D016811F00C0F08D00068C0F38100B7
:1013200002280BD1D9F80000400207D428688007B2
:1013300016D5E068012800D112E033E1E068B8B1C9
:101340000120C8F80000FFF7DDFD064605E000BFFC
:10135000FFF7D8FD801B0228C0D828688007F7D582
:101360002868216920F0F80040EAC10028600DE0FB
:10137000C8F800A0FFF7C6FD064604E0FFF7C2FD6F
:10138000801B02281FD828688007F7D42078000720
:1013900022D5864F87486169703771B1012101609C
:1013A000FFF7B0FD064604E0FFF7ACFD801B022806
:1013B00009D838688007F7D50EE0C0F800A0FFF71D
:1013C000A1FD064605E082E0FFF79CFD801B022898
:1013D0007DD838688007F7D42078400768D5DFF8D3
:1013E000CCB100270BF13C0BDBF80000C0000BD4A4
:1013F000DBF8001041F08051CBF80010DBF8000062
:10140000012700F0805000906B4E3068C00510D46A
:10141000306840F480703060FFF774FD009005E0A4
:10142000FFF770FD0099401A022850D83068C005B7
:10143000F6D55E4EA0686C3601280FD005283068BE
:1014400010D020F001003060306820F004003060DF
:10145000A068B8B1FFF756FD00900FE0306840F08B
:101460000100F4E740F004003060F7E7FFF74AFDC1
:101470000099411A41F28830814266D8306880076D
:10148000F4D50EE0FFF73EFD009007E0FFF73AFDD0
:101490000099411A41F28830814256D8306880075D
:1014A000F4D42FB1DBF8001021F08051CBF80010FC
:1014B000A069C8B33D49091D0968C1F3810102292A
:1014C0004AD00228504607D0C8F8600000E03CE04F
:1014D000FFF718FD04463BE04746C8F86000FFF7F9
:1014E00011FD064605E000BFFFF70CFD801B02283A
:1014F0002BD828688001F7D4D4E907010843A16AF2
:101500002E4A490802EB0141626A41EA821108430E
:1015100094F82C1040EA0161C9F8001001203866E7
:10152000FFF7F0FC044606E03EE000BFFFF7EAFCF0
:10153000001B022809D828688001F7D534E000BFD5
:10154000FFF7E0FC001B022802D90320BDE8F88F5A
:1015500028688001F4D427E00128F7D0D9F80000EA
:10156000E26900F4800191421CD1226A00F03F013F
:10157000914217D147F6C071626A0140B1EB821FF8
:1015800010D1A26A4FF0FF3300F4403103EB520256
:10159000B1EB024F06D194F82C1000F07060B0EB64
:1015A000016F01D00120D1E70020CFE704380240CD
:1015B00000004742800E4742007000400000FFFFDD
:1015C00010B5401EB0F1807F01D3012010BD4FF057
:1015D000E02460610F21601701F0F8F90020A0619C
:1015E00007202061002010BD7047704710B504002F
:1015F00003D094F83D0010B107E0012010BD002099
:1016000084F83C00204600F01FF8022084F83D00DA
:10161000211D206800F052FF012084F8460084F864
:101620003E0084F83F0084F8400084F8410084F8CC
:10163000420084F8430084F8440084F8450084F8AC
:101640003D00002010BD0000094808B5016841F0C8
:10165000020101600068012200F0020000900021F8
:101660001D20FFF7D9FCBDE808401D20FFF7C7BCCF
:101670004038024090F83D10012901D00120704708
:10168000022180F83D100168CA6842F00102CA6078
:1016900000681149884214D0B0F1804F11D00F4931
:1016A00088420ED00E4988420BD00E49884208D09D
:1016B0000D49884205D00D49884202D00C49884224
:1016C00004D1816801F00701062903D0016841F0C7
:1016D000010101600020704700000140000400404B
:1016E00000080040000C00400004014000400140A0
:1016F00000180040704770B50446006801694FF05B
:101700000005C943890715D4C168C943890711D4A5
:10171000E91E01610120207720688069800720464A
:1017200002D0FFF7E7FF04E000F098F8204600F051
:1017300096F8257720680169C943490717D4C1681D
:10174000C943490713D46FF00401016102202077D7
:101750002068806910F4407F204602D0FFF7CAFF5E
:1017600004E000F07BF8204600F079F82577206847
:101770000169C943090716D4C168C943090712D4CE
:101780006FF008010161042020772068C06980079C
:10179000204602D0FFF7AEFF04E000F05FF82046DD
:1017A00000F05DF8257720680169C943C90617D4A0
:1017B000C168C943C90613D46FF010010161082044
:1017C00020772068C06910F4407F204602D0FFF7E0
:1017D00091FF04E000F042F8204600F040F8257741
:1017E00020680169C943C90708D1C168C943C9074D
:1017F00004D1891E0161204600F032F82068016999
:10180000C943090609D4C168C943090605D46FF064
:10181000800101612046FFF7E7FE20680169C943A6
:10182000490609D4C168C943490605D46FF040018F
:101830000161204600F044F820680169C943890627
:101840000BD4C168C943890607D46FF02001016138
:101850002046BDE87040FFF7C8BE70BD70477047B6
:1018600030B5144C1449012020800A880023521CF2
:1018700095B2124A0D800A2D0CD360800B804D88E2
:101880006D1C4D8010700D896D1CADB20D81042D45
:1018900000D30B814D880A2D05D3A0804B808D8805
:1018A0006D1C8D8050708D880A2D02D3E0808B8056
:1018B000907030BD3C000020701A00200000002015
:1018C0007047704770470000F8B50268044610681A
:1018D000D168536910F00F0F4FF0000553D003F09B
:1018E000010601F4907737435FD0C20705D0CA05DF
:1018F00003D5226C42F001022264420705D5DA07C3
:1019000003D0226C42F002022264820705D5DA0776
:1019100003D0226C42F004022264020707D501F0D2
:101920002002324303D0226C42F008022264226C6F
:10193000002A34D0800604D5880602D5204600F05F
:1019400001FF20684069216CC0F38010090700D4B2
:1019500030B3204600F0B4FE2068416949061BD52B
:10196000416921F040014161A06BA8B1594901656D
:10197000A06BFFF788F9002811D0A06B016D01B0B2
:10198000BDE8F040084783060FD58B060DD52046ED
:10199000BDE8F84000F0D6BE2046FFF793FFF8BD43
:1019A0002046FFF78FFF2564F8BD266B2023012E0C
:1019B00053D1C60651D5CE064FD510685068009059
:1019C000506940062BD5A16B086840680004000CE4
:1019D000EAD0A68D8642E7D9E085C869B0F5807F58
:1019E00018D0D06820F48070D0602068416921F060
:1019F000010141612068416921F04001416184F8A1
:101A00003E3025632068C16821F01001C160A06BE1
:101A1000FFF7F2F8A08DE18D401A81B219E0A08D98
:101A2000E18D401A81B2E08D0028BDD00029BBD0E5
:101A3000D06820F49070D0602068426922F00102E2
:101A4000426184F83E3025632068C26822F01002AB
:101A5000C2602046FFF735FFF8BD05062BD50D0601
:101A600029D594F83D002128F6D1A068B0F5805F13
:101A700001D12069B0B1206A411C2162216800783F
:101A80004860E08C401E0004000CE084E4D1206833
:101A9000C16821F08001C1602068C16841F0400147
:101AA000C160F8BD206A0088C0F308005060206A59
:101AB000801C2062E5E74006F3D54806F1D5D168E1
:101AC000204621F04001D16084F83D3000F0DFF87D
:101AD000F8BD0000B126000870B5040004D094F8E9
:101AE0003D00002510B106E0012070BD84F83C5097
:101AF000204600F023F8242084F83D002068C168C7
:101B000021F40051C160204600F074FE2068016994
:101B100021F4904101612068416921F02A0141616D
:101B20002068C16841F40051C1602564202084F818
:101B30003D0084F83E00002070BD000030B5114823
:101B400087B0016841F0100101600068012100F0D8
:101B5000100005904FF4007000900220CDE90101C3
:101B60000724CDE90304084D69462846FFF7AAF883
:101B700028150090694604942846FFF7A3F807B09B
:101B800030BD0000443802400000024090F83E3072
:101B9000202B0ED159B152B190F83C30012B08D016
:101BA000012380F83C300023036300F0A9BE01202C
:101BB000704702207047000010B50446082205490E
:101BC0002046FFF7E3FF0028F8D103490120087001
:101BD00010BD000030000020200000202DE9F84357
:101BE000044690F83D001F4616460D4620284CD16D
:101BF000C5B1BEB194F83C00012846D0012084F85C
:101C00003C004FF00008C4F84080212084F83D00DB
:101C1000FFF778F9A6848146E684A068B0F5805F76
:101C200003D004E00120BDE8F883206928B12E46E6
:101C30005FF0000584F83C800EE00026FAE7802182
:101C4000204600F078FEA0B9AEB116F8010B21686D
:101C50004860E08C401EE084E08C4B464FF0000270
:101C600000970028EBD14FF04001204600F063FEC2
:101C700030B10320D7E735F8020BC0F30800E6E7E0
:101C8000202084F83D000020CDE70220CBE77047FC
:101C9000FEE7FEE746F21403C81A994275D063DCEA
:101CA000B1F5C05F72D032DC41F20143A1EB030019
:101CB00099426CD017DC41F21803A1EB0300994262
:101CC0007ED009DCB1F5805F7BD06FF480500818BE
:101CD00078D0162877D1A7E0B0F5F47F74D0B0F5AE
:101CE0007A7F70D1A6E0B0F5007F6ED008DC0128C5
:101CF0006CD002286BD0A0F58070FF3863D1A3E0D0
:101D0000A0F50070013874D001285CD1A7E041F63D
:101D10000323C81A99426DD013DCB1F5D05F6AD0A5
:101D200008DC6FF4C050081876D0012875D002285E
:101D30006ED19CE06FF4D05008186FD0012867D1A5
:101D40009CE044F20E63C11A984268D007DCA0F20E
:101D5000FD50B0F580406FD0102859D194E0012992
:101D60006BD0022954D195E0B0F5827F70D01CDC95
:101D70001E286ED011DC12286CD009DC0D286AD028
:101D80000E2869D0112843D18EE087E069E055E044
:101D90001C286ED01D283BD18CE0FD38052837D299
:101DA000DFE800F08F919395970040F2EF13A0F2D7
:101DB000EF11984270D01FDCB0F5F67F6DD007E0D0
:101DC00034E02DE02EE023E032E03FE038E039E07F
:101DD00008DCA0F58070053870D001286FD002288B
:101DE00016D182E0A0F58070ED3869D001280FD1BE
:101DF00081E032E044E03DE003296ED004DC0129BB
:101E00007DD0022904D17CE004297ED00D297ED02A
:101E1000424810600020704725E026E02CE035E0C5
:101E2000002075E0012073E0022071E003206FE0E4
:101E300004206DE005206BE024E029E0062067E047
:101E4000072065E0082063E0092061E00A205FE0E8
:101E500041E031E02AE023E024E00B2058E00C20B0
:101E600056E00D2054E00E2052E00F2050E01020EC
:101E70004EE01DE011204BE0122049E0132047E026
:101E8000142045E0152043E0162041E017203FE0F4
:101E900018203DE019203BE02FE028E01A2037E031
:101EA0001B2035E01C2033E01D2031E01E202FE0F8
:101EB0001F202DE020202BE0212029E011E012E05E
:101EC00017E0222024E0232022E0242020E0252007
:101ED0001EE026201CE027201AE014E00FE014E0AA
:101EE00015E0282014E0292012E02A2010E02B2001
:101EF0000EE02C200CE02D200AE02E2008E02F2000
:101F000006E0302004E0312002E0322000E03320FF
:101F100000211160024901EBC0007CE700000206CD
:101F20007C5F00089F2802D0A02810D103E0087829
:101F300068B10848704791F90000002802DA0548A6
:101F4000401C70470A2802DD0248801C70470020B0
:101F50007047000030000906704710B503F006FF17
:101F6000002010BD38B50446B0F9AC00A834FEF727
:101F7000FFFAA08054F8A809008840B1002300901F
:101F8000044A1946204600F089F9A4F8AC00002064
:101F900038BD00004321000810B5044601F0F2FCF2
:101FA000204601F0B5FC002010BD0000D0F80C1256
:101FB000097869B900210A4606E000BFD0F810325E
:101FC00043F82120491CC9B290F809328B42F5D858
:101FD0000020704730B401EBC102846802254FF045
:101FE000FF3305EB4205635300238468062505EBA8
:101FF0004202A35230BCC9B203F080BC30B401EB42
:10200000C102846804254FF0FF3305EB420563539A
:102010008368C9B213F8124024F0010403F8124097
:1020200030BC03F06BBC00002DE9F8430646406964
:102030004FF4C0550489B0690789CCB1DFF83C8002
:10204000BC4215D8D6F8E8316A462946304698474A
:10205000009941B90268C2F82C800268C2F83C803D
:102060000068C0F85C806D1C641CADB2A4B2E7E7E8
:102070003046BDE8F843002100F00EBE852500087B
:102080002DE9F0470446406900260589A069B0F8AB
:10209000088035BBBDE8F087A16806EBC6070220C3
:1020A00000EB470931F90900FEF762FAA26822F84D
:1020B0000900A168042000EB470931F90900FEF787
:1020C00057FAA268761CF6B222F80900A16800202F
:1020D000062201F81700A16802EB47026D1C885226
:1020E000ADB24545D8D9D5E730B5134C00231A46D3
:1020F00021680D68002D0BDA104913464C6924063F
:1021000002D580244C618B6002604260826030BDE9
:102110000D682D040AD40D68ED0507D50D68AD05D1
:1021200004D50A68C2F30D438A681B1FCD68256079
:102130000360C0E9012130BDA019002000900240D9
:1021400070473EB50446D0F8A8000088A8B12068C2
:102150006946007800F5E060ADF8000001208DF8D8
:10216000030000208DF8020094F87C008DF8040034
:10217000D4F8E40100F03EFF3EBD34F9AC0FFEF7A9
:10218000F7F920803EBD38B51D461446D0F8E83139
:102190006A469847009939B90179A14204D9006883
:1021A0000C2101EB04114550009838BD2DE9FC418C
:1021B000054640690F464088002833D0C7EBC70169
:1021C00001EB410105EB8104A96994F828204988B5
:1021D0001044884226D86968134E51F83000806B4D
:1021E00090F800804FF0FF30A4F87400852084F848
:1021F0002A0094F83200CDE90006238E94F82910C5
:10220000284603F053FCE662A26F2AB141462846F5
:102210009047E06AB04205D1F9B22846BDE8FC41DA
:1022200003F050BBBDE8FC81000004051FB5C1EB05
:10223000C10101EB410100EB81014A6B0AB98A6BD4
:102240004A630392012203ABCDE90032029201F10D
:102250003C0391F83220098E00F0ACFD04B010BDB3
:1022600070B5C1EBC10101EB410100EB81018C6B49
:10227000A018202801D9FF2070BD002006E02618F4
:102280001D5C0E44401C86F83C50C0B29042F6D310
:10229000886B10448863002070BD70472DE9F05FA3
:1022A0008B46214982460026B1F900001C46914622
:1022B0001C4D401C08E000BFB9F1000F01D02A7886
:1022C00052B1761C36B21835864201DC0A2EF3DB99
:1022D0004FF0FF30BDE8F09F8846864201D1A8F854
:1022E000000000F03DFF07464FF6FF7120468C428C
:1022F00000D30846D8F80420BA4207D9D21B82423C
:1023000004D93A18C8F8042003F00EFDE019C5E915
:1023100003B0C5E901A90A98686101202870304618
:10232000D8E70000CC1A00205400002003F0DABBEC
:10233000FEF722BE70B5554892B00025016841F005
:1023400080510160006800F0805011905048016891
:1023500041F4404101600068012600F440401190C2
:102360003004CDE9006002248001CDE90640192047
:1023700008904FF4B470CDE9090404200B9068462E
:10238000FEF768FF0CA90F2081E831004FF4A05040
:102390000F90E002109005210CA8FEF76FFE3B485D
:1023A0001038016841F001010160016801F001018C
:1023B0001191016841F002010160016801F0020120
:1023C0001191016841F004010160016801F004010C
:1023D0001191016841F008010160016801F00801F4
:1023E0001191016841F010010160016801F01001D4
:1023F0001191016841F020010160016801F02001A4
:102400001191016841F040010160016801F0400153
:102410001191016841F080010160016801F08001C3
:102420001191016841F480710160016801F48071CB
:102430001191016841F400710160016801F40071BB
:102440001191016841F480610160006800F48060CE
:102450001190104806600D48343001688907FCD59A
:102460000168890003D5016841F0807101600B4863
:10247000094901600621416041F288318160FEF71F
:1024800047FD002800D0FEE712B070BD4038024082
:1024900000700040800E474200300040C01A00200B
:1024A0000248016841F470010160704788ED00E066
:1024B0000148FFF720B90000281A0020F0B5026893
:1024C000254C264D264E274F274B4FF0804CA042DF
:1024D00009D0604507D0A84205D0B04203D0B84229
:1024E00001D0984204D122F0700E4A6842EA0E02EE
:1024F000A0421BD0604519D0A84217D0B04215D0D9
:10250000B84213D0984211D0184DA8420ED0184DA1
:10251000A8420BD0174DA84208D0174DA84205D0AD
:10252000164DA84202D0164DA84203D122F44075A0
:10253000CA682A434D6922F080022A4302608A68F1
:10254000C2620A688262A04201D0984201D1096940
:10255000016301214161F0BD000001400004004021
:1025600000080040000C0040000401400040014011
:10257000004401400048014000180040001C004099
:10258000002000402DE9F041044690F8820048B355
:10259000022A03D0032A01D0052A23D16269A08828
:1025A000127A00EBC200081AC0F3C705A16805EB58
:1025B000C506022000EB4607C85FFDF7D9FFA168FA
:1025C000C853A168042000EB4607C85FFDF7D0FFA1
:1025D000A168C853A168002001F8160029462046CA
:1025E000FFF7F8FC0020BDE8F08100000B48002157
:1025F0004FF47A7301704170817009490A7AC27090
:10260000C9680A0E02710A0C42710A0A8271C1710C
:102610000822083841680348FFF7E0BA2800002084
:102620000C1C00207C1A0020094A0020A2F108019D
:10263000135C0B54401CC0B20828F9D3044808228C
:1026400010384FF47A7341680248FFF7C7BA0000A8
:10265000300000207C1A0020114810B5006844F6B4
:102660002061B0FBF1F10F48491E0F4A01600F488D
:102670000260416009220021C0E90321816081617B
:10268000FEF7B4FF08B1FDF7CEFF0848FEF7F2FFF2
:10269000002803D0BDE81040FDF7C5BF10BD000005
:1026A000500000203800002000040040281A0020BC
:1026B00010B5806B0021C185C184FFF703F910BDFF
:1026C0000168CA6822F49072CA6001684A6922F0FF
:1026D00001024A61016B012904D10168CA6822F034
:1026E0001002CA60202180F83E100021016370476B
:1026F000124810B5104901604FF4E13141600021EA
:102700008160C1600C220161C0E90521C161FFF750
:10271000E3F908B1FDF787FF002211462520FEF7F7
:102720007BFC2520FEF76BFC012205490348FFF7DF
:102730002DFA0028F8D110BD001001407C1A0020AD
:102740003000002010B5044690F83E00222801D049
:10275000022010BDA1684FF48052914201D120693E
:1027600020B1A06A91421BD049B10AE02168A06A59
:102770004968C1F308010180A06A801C08E0216952
:1027800071B12168496801F07F010170A06A401CA5
:10279000A062E08D401E0004000CE08503D01CE028
:1027A00021684968F1E72068C16821F02001C16013
:1027B0002068C16821F48071C1602068416921F0FE
:1027C00001014161202084F83E00206B012806D0E1
:1027D0002046FFF7F1F900202063002010BD20689B
:1027E000C16821F01001C160A18D2046FFF769F892
:1027F000F1E7000070B5044600680169E26821F461
:102800004051114301612169A068E269084361698F
:10281000114308432168CA6849F20C639A43024392
:10282000CA6020684169A26921F440711143416185
:1028300031492068884202D03049884202D1FEF7EF
:10284000C7FC01E0FEF7B4FCE2690023192164250E
:102850003226B2F5004F626828D0A0FB0101930F29
:102860009200FDF7BFFC0146B0FBF5F06FF01802D7
:10287000504301EB800006EB0010B0FBF5F000F0D8
:10288000F002B1FBF5F002EB0012B1FBF5F06FF0D6
:102890001803584301EB800006EB0010B0FBF5F085
:1028A00000F00F0021681044886070BDA0FB01019A
:1028B00092185B41FDF796FC0146B0FBF5F0020172
:1028C000B1FBF5F06FF01803584301EB800006EB05
:1028D000C000B0FBF5F000F0F80002EB4002B1FBE5
:1028E000F5F0584301EB800006EBC000B0FBF5F0BB
:1028F00000F00700D6E7000000100140001401407E
:1029000081628285C28500210164222280F83E20F6
:1029100080F83C100168CA6842F48072CA6001689D
:102920004A6942F001024A610068C16841F0200131
:10293000C160002070472DE9F041984617460E46C9
:102940000446069D1DE0681C1BD02DB1FEF7DAFA87
:10295000A0EB0800A84214D92068C16821F4D07106
:10296000C1602068416921F001014161202084F8A3
:102970003D0084F83E00002084F83C000320BDE8C0
:10298000F0812068006836EA000004D00020B842D8
:10299000D9D00020F3E70120F9E700000148FEF755
:1029A00093BF00007C1A0020FEE770470FB4054B70
:1029B00010B503A9044A029800F092F810BC5DF823
:1029C00014FB00004D310008B81900200907090E5A
:1029D000002804DB00F1E02080F80014704700F0CC
:1029E0000F0000F1E02080F8141D704702E008C8D5
:1029F000121F08C1002AFAD170477047002001E079
:102A000001C1121F002AFBD1704700002DE9F84FC9
:102A10009946DDE90BA51746D0F8E8310A9E6A46CB
:102A2000984704460098002803D12079B84202D87C
:102A30001F48BDE8F88F3DB1206800EB0710007813
:102A4000C00701D01B48F4E7B9F1000F0BD00420F8
:102A5000216800EB0718326851F80800904205D948
:102A600030601548E5E74FF00060E2E7012000EB39
:102A70000710095C8AF800102068082101EB071193
:102A800050F8085041582A464846FDF7DCFB9AF8B2
:102A90000000092809D1216851F8080031688842EE
:102AA00003D2002109F805106D1C00203560C0E735
:102AB0001100090601000106050004057047704772
:102AC0007047704770477047704770477047016A9A
:102AD0000978002902D1812200F093BC70470000E0
:102AE0002DE9FF4F8BB09A460F460546002606E0BB
:102AF00025280BD052460D9990476D1C761C2878DE
:102B00000028F5D10FB03046BDE8F08F0024A04674
:102B10000122604900E0044315F8013F203B02FA1E
:102B200003F00842F7D128782E2817D115F8010FA5
:102B300044F004042A280ED06FF02F022878A0F168
:102B4000300109290AD808EB880102EB410100EBAA
:102B500001086D1CF2E757F8048B6D1C2878692872
:102B60003ED006DC0028CDD063280BD0642804D1E9
:102B700036E0732810D075284BD052460D999047F7
:102B8000761C85E017F8040B8DF8000000208DF806
:102B90000100E946012003E057F8049B4FF0FF30A5
:102BA00061074FF0000401D40AE0641C44450DDACB
:102BB0008442FADB19F804100029F6D106E0641CFF
:102BC0008442FCDB19F804100029F8D1264404E003
:102BD00019F8010B52460D999047641EF8D257E040
:102BE00001CF4FF00A0B002802DA40422D2102E00B
:102BF000210504D52B218DF82410012103E0E107E4
:102C000005D02021F7E70DF1200908910CE0002103
:102C1000F9E701CF4FF00A0BF9E75946FDF732FB10
:102C200001F1300209F8012D0028F6D1ADEB0900C1
:102C300000F1200B600701D44FF00108D84502DDF8
:102C4000A8EB0B0000E000208046002406E009A865
:102C50005246005D0D999047641C761C089884428A
:102C6000F5DB04E0302052460D999047761CB8F110
:102C70000001A8F10108F5DC05E019F8010B524646
:102C80000D999047761CBBF10001ABF1010BF4DC10
:102C90006D1C34E7092801002DE9FE4F0446406908
:102CA000002589460689A069078994F882000028D2
:102CB0000ED0002E6AD0A846CDF80080CDF8048052
:102CC000CDF8088060E005286ED00B2858D0FF2092
:102CD000BDE8FE8F606850F83600816909680029F8
:102CE00001DA0B2024E0806AB9F1000F23D00178CB
:102CF000E9B3F02925D8A26805EBC50112F8113017
:102D00005B1CDBB202F811300278934219D1A26841
:102D1000204602F81180CDF80080CDF804806A4684
:102D20002946CDF8088000F0BEF80028D9D105204A
:102D3000BE42C8D92AE00078FF2829D0FE2827D033
:102D40001CE00078FC2818D105EBC50A0622A16812
:102D500002EB4A000A182946204600F0A4F8002891
:102D6000A06810F81A1003D021F0010202E016E06A
:102D700041F0010200F81A20B3E780B1BE4205D845
:102D80006D1C761CEDB2B6B2BE42A3D900209FE7FF
:102D9000A06805EBC50110F81100C007EDE7294652
:102DA000204602F0ABFD9CE76A462946204602F029
:102DB0002DFE96E72DE9FF4F81B01546DDE90E7631
:102DC000D0F8E83180466A46029998470446009850
:102DD000002803D12079A84203D82E4805B0BDE8C9
:102DE000F08F2EB1206800EB05100078022828D063
:102DF0000121206801EB051110F801A0042101EB6D
:102E0000051146580C2101EB051150F80190386866
:102E100008B1B0423AD8D8F82420504604999047D7
:102E200000900028DAD10820216800EB051B3A68E1
:102E300051F80B000499FDF706FABAF1090F02D018
:102E400009E01548CAE73868B04204D22368002276
:102E500053F80B100A543E60B9F1000F07D02A4610
:102E6000214640464B46984700900028B6D120683E
:102E700000EB05100078400706D5D8F8EC31404645
:102E80002A4602999847A9E70020A7E703483E6031
:102E9000A4E7000011000906020001061000070661
:102EA0007047002070472DE9F04F436983469146F3
:102EB00018895B89C00000EBC102DBF80400DB006D
:102EC00003EBC1010F180244386889B00026D0F81E
:102ED00008A01068354680690088C0F30A01A9F887
:102EE000001089F8026000200490059018213A68CB
:102EF00001EB061152581368190C13F0FF042ED081
:102F00002B190793402B2AD8A4F1010C012303EBC2
:102F1000DC0CCDF818C01288CDE902030DF1200CAD
:102F20000DF11808CDE9008CC2F3072204AB584616
:102F3000FFF76CFD18B1FF2009B0BDE8F08F09EB79
:102F4000D502121D0092002005F00701CDE9011005
:102F5000002320461A4604A9FDF7B8FA079D761CFF
:102F60009AF80000F6B2B042BDD801206D1E00EB09
:102F7000D50089F803000020DEE730B40A88D309C1
:102F80000F2B35D2DFE803F02D0818181818181881
:102F90001818181F1F342600802A06D090F87F20AA
:102FA000002A25D030BC01F027B890F88010002905
:102FB0001ED030BC02F066BC90F88220002A17D0E8
:102FC00030BC01F0F1B890F87E20002A10D030BC5F
:102FD00001F0FAB990F88120002A09D030BC01F044
:102FE00069B8026A1278002A02D030BC01F016B823
:102FF00030BC704710B588B00C46202205496846A1
:10300000FDF721F9231DE21CA11C2046FDF726FA3D
:1030100008B010BDE019002010B50446054B002291
:1030200041F20301FFF7AFF8D4F80C12002008704A
:1030300010BD0000AD1F0008704700002DE9FE43E1
:10304000814600266846FFF74FF8DDE901710098D8
:10305000884681B20322104600F0BEFC05000AD06B
:103060000446B91962896068FDF7EDF86089246843
:103070000644002CF5D14FF00041C8F800100C4870
:103080004169090603D5802141610021816065B154
:10309000D9F81020494628469047040002D0284617
:1030A00000F046FE2046BDE8FE834FF0FF30FAE711
:1030B000009002402DE9FE439946DDE90A76154667
:1030C0008846044602AB00F076F890BB012D04D18F
:1030D0009DF80810204602F0F5FB022D29D19DF83D
:1030E0000800C0EBC00000EB400004EB8000B0F92A
:1030F0007400FDF73DFA9DF80810C1EBC10101EB2A
:10310000410104EB8101A1F874009DF808108520AD
:10311000C1EBC10101EB410104EB810181F82A00FF
:103120009DF80800C0EBC00000EB400004EB8000FD
:10313000C662CDE900764B4642462946204602F05B
:10314000B5FC002800D0FF20BDE8FE8338B504465A
:103150008DF8000069460320ABBE204638BD000054
:10316000044AD1681068884201D892681044401A15
:10317000704700005C00002000680078704710B5C0
:103180000023C3EBC30404EB440400EB840494F871
:103190002A402CB15B1C13F0FF03F2D0FF2010BDBE
:1031A0001370C3EBC30202EB420200EB820080F813
:1031B0002910002010BD70B50024C4EBC40505EB38
:1031C000450500EB850595F82A606EB1852E0BD07C
:1031D00095F828608E4207D195F82950954203D181
:1031E00003B11C70002070BD641C14F0FF04E4D017
:1031F000FF2070BDC1EBC10101EB410100EB81017A
:10320000486B08B1896B401A1060002070470000BD
:10321000F8B50546184B002241F21701FEF7B3FF3F
:10322000002685F8E061344613E000BFD5F8A00021
:1032300030F8240003041B0C09D0104A214628460C
:103240000096FFF72BF8D5F8A41021F81400641CA1
:10325000E4B2D5F89C000078A042E7D8D5F8A800E1
:103260000388002B07D0064A002128460093FFF769
:1032700015F8A5F8AC00F8BD651F0008A10400080A
:103280004321000870B5054600240BE0D5F8A400E2
:1032900030F91400FDF76CF9D5F8A41021F81400EA
:1032A000641CE4B2D5F89C000078A042EED835F951
:1032B000AC0FFDF75DF9288070BD00002DE9F843E3
:1032C0001746DDE90896C1EBC102002502EB420278
:1032D000984600EB8204022E2CD0032E2AD0042E16
:1032E00028D0052E26D0B4F97400FDF741F900BFAF
:1032F000A4F8740084F82870A4F8308084F8329020
:1033000084F82A6084F82B506563A56384F85C50C8
:1033100084F85D5084F85E502566656684F86850D0
:1033200084F8695084F86A5084F873500020A567C7
:10333000BDE8F88340F6B833024A0095FEF7AEFFC9
:10334000D6E70000AD21000810B50446FFF760FF86
:103350002046BDE8104000F0DBBA10B50446FFF788
:1033600091FF2046BDE8104000F00CBBC1EBC1014D
:1033700030B501EB410100EB81018C6BA0182028D6
:1033800002D84D6BA84201D9FF2030BD002006E0D5
:1033900025180D4495F83C501D54401CC0B2904275
:1033A000F6D3886B10448863002030BD0148FFF7D6
:1033B00045BE000038C70220FDF7E6FDFEF7BAFF64
:1033C000FDF73CF9FFF748F9FFF792F9FDF72CF903
:1033D0000248FDF7CAFDFCF7C9FFF9E7C01A002053
:1033E0000EB541F4E061ADF8001001218DF8021036
:1033F00000218DF80310D0F8E4016946FFF7FAFDCB
:103400000EBD0EB50023ADF800308DF802308DF8FA
:10341000042002238DF805108DF80330D0F8E40164
:103420006946FFF7E7FD0EBD70B5040032D0A00776
:1034300006D019A34FF49F7220A129A0FFF7B6FA76
:10344000324D6868844202D3A868844206D312A32E
:103450004FF4A0722EA122A0FFF7A8FA6868844258
:1034600018D3A868844215D214F8040C083C30B96B
:1034700009A340F251122CA119A0FFF797FA0020DE
:103480002071E868844200D2EC602046BDE87040BC
:1034900000F0FCBC70BD00002E2E5C6C7769705C87
:1034A0006C7769702D312E342E315C7372635C63DE
:1034B0006F72655C6D656D2E630000006D656D5FFC
:1034C000667265653A2073616E6974792063686518
:1034D000636B20616C69676E6D656E74000000003F
:1034E000417373657274696F6E20222573222066A2
:1034F00061696C6564206174206C696E6520256467
:1035000020696E2025730D0A00000000A819002014
:103510006D656D5F667265653A206C6567616C20EC
:103520006D656D6F727900006D656D5F66726565C2
:103530003A206D656D2D3E75736564002DE9F04789
:10354000002874D04FF6FC71C01C00EA01044FF44F
:103550007A590C2C01D20C2401E04C456CD8374E22
:10356000C4F57A537268F068811A89B262E055181E
:103570002F79002F5DD12F887F1A083FA74258D39B
:103580002B8804F114075B1A083B4FF0010CBB4277
:1035900015D30B1908339FB2D3194FF0000883F8E5
:1035A0000480B5F80080A3F8008059802F8085F84A
:1035B00004C01988494504D0931CCF5201E085F816
:1035C00004C0854213D1B16801E00088104403793A
:1035D0000BB18842F9D1F060884208D0007930B14F
:1035E00017A34FF418721FA125A0FFF7DFF92819C0
:1035F000B1680830884206D911A34FF419722BA183
:103600001FA0FFF7D3F9A8070FD00DA340F2662241
:1036100032A11BA0FFF7CAF909A34FF41A7200E008
:1036200005E03AA116A0FFF7C1F905F10800BDE8D1
:10363000F087515A8B429ADC0020F8E7A819002045
:103640002E2E5C6C7769705C6C7769702D312E342E
:103650002E315C7372635C636F72655C6D656D2E99
:10366000630000006D656D5F6D616C6C6F633A2087
:10367000216C667265652D3E7573656400000000FF
:10368000417373657274696F6E2022257322206600
:1036900061696C6564206174206C696E65202564C5
:1036A00020696E2025730D0A000000006D656D5FB6
:1036B0006D616C6C6F633A20616C6C6F63617465F3
:1036C00064206D656D6F7279206E6F742061626F1A
:1036D00076652072616D5F656E642E006D656D5F4D
:1036E0006D616C6C6F633A20616C6C6F63617465C3
:1036F00064206D656D6F72792070726F7065726C89
:103700007920616C69676E65642E00006D656D5F80
:103710006D616C6C6F633A2073616E6974792063BC
:103720006865636B20616C69676E6D656E7400001F
:1037300030B50A4A084B002403EB800152F82020E0
:103740000969920002E000BF01F8014B521EFBD252
:1037500018440121017630BD80190020386100082D
:1037600010B50C4B0C4C002253F82030114604EBE2
:10377000800005E0046954F8214004B1521C491C42
:103780008B42F7D84FF47A704243B2FBF3F080B229
:1037900010BD0000386100088019002070B50C00D1
:1037A00005460ED0A00706D006A34FF4E5720EA181
:1037B00015A0FFF7FBF81F4850F82510216040F8CE
:1037C000254070BD2E2E5C6C7769705C6C776970DB
:1037D0002D312E342E315C7372635C636F72655CC5
:1037E0006D656D702E6300006D656D705F6672654E
:1037F000653A206D656D2070726F7065726C79200E
:10380000616C69676E656400417373657274696F9A
:103810006E2022257322206661696C6564206174C4
:10382000206C696E6520256420696E2025730D0A61
:103830000000000090C7022010B50E2808D30EA388
:1038400040F29D1215A11DA0FFF7B0F8002010BD99
:10385000254951F82040002C0BD0226841F8202047
:10386000A00706D004A34FF4D77220A113A0FFF73E
:103870009DF8204610BD00002E2E5C6C7769705CB0
:103880006C7769702D312E342E315C7372635C63FA
:103890006F72655C6D656D702E6300006D656D7097
:1038A0005F6D616C6C6F633A2074797065203C20A9
:1038B0004D454D505F4D4158000000004173736508
:1038C0007274696F6E2022257322206661696C65AF
:1038D00064206174206C696E6520256420696E2007
:1038E00025730D0A0000000090C702206D656D7001
:1038F0005F6D616C6C6F633A206D656D70207072E6
:103900006F7065726C7920616C69676E6564000028
:1039100038B50446194B002241F20C01FEF733FC86
:10392000164B002241F20D012046FEF72CFCD4F884
:103930003C010388002B1FD0D4F8400100780028F8
:103940001AD00F4A002120460093FEF7A7FCA4F8E6
:1039500034010020211891F8B4200F2A08D02268E1
:103960001278824204D0D4F84021127881F84421A0
:10397000401CC0B28028EDD338BD0000991F00085C
:103980002507000810B50446B0F93401FCF7F0FD36
:10399000A4F8340110BD10B586B0202204AC049206
:1039A0000094012205ABCDE90132C1EBC10101EB6D
:1039B000410100EB8104039204F13C0394F83220AE
:1039C000218EFFF723F8002803D1049860630020BC
:1039D000A06306B010BD00002DE9F05F16460F464B
:1039E00048B1012809D0022809D0032809D06CA3C6
:1039F000E82274A116E0362504E0222502E00E2517
:103A000000E000254FF0010A4FF00008002E71D0B1
:103A1000012E70D0022EFCD0032E07D060A34FF4ED
:103A2000AA726FA175A0FEF7C1FFA4E00D20FFF7F9
:103A300003FF041E78D060191330267320F00300B2
:103A4000C4E90080800705D055A3FA2276A16BA0B7
:103A5000FEF7ACFFED1C25F00300C0F500752781D3
:103A6000BD4201DD384600E028466081616804F50A
:103A7000047B0144594506D949A34FF4807276A1CD
:103A80005EA0FEF793FF002D06DC45A340F2031273
:103A90007EA15AA0FEF78AFFA4F80EA06089A14675
:103AA0003F1A3EE00D20FFF7C7FE05003DD02E7304
:103AB00085F80D80C5F800804FF6FF70C9F80050FA
:103AC000874206DB36A34FF48F727DA14BA0FEF731
:103AD0006DFFB8B24FF400712881884200D30846C8
:103AE000688105F110006860800709D02CA340F2BE
:103AF000231201E01DE041E076A140A0FEF756FF51
:103B0000618960680144594506D925A340F2251210
:103B100051A13AA0FEF74AFFA5F80EA06889A94670
:103B20003F1A002FBEDC35E026E0204600F000F909
:103B300021E005F1130020F00301F81C20F0030040
:103B4000084480B2FFF7FAFC040014D06019133067
:103B500020F00301616027816781C4F8008084F848
:103B60000C80880716D00EA34FF49F7265A123A086
:103B7000FEF71CFF0EE00020BDE8F09F0C20FFF7D1
:103B80005BFE041EF8D0C4F8048027816781C4F866
:103B900000802673A4F80EA084F80D802046EBE781
:103BA0002E2E5C6C7769705C6C7769702D312E34C9
:103BB0002E315C7372635C636F72655C70627566F4
:103BC0002E630000706275665F616C6C6F633A20F3
:103BD0006261642070627566206C617965720000B4
:103BE000706275665F616C6C6F633A206572726FAC
:103BF0006E656F757320747970650000417373652D
:103C00007274696F6E2022257322206661696C656B
:103C100064206174206C696E6520256420696E20C3
:103C200025730D0A00000000706275665F616C6CA0
:103C30006F633A207062756620702D3E7061796CFA
:103C40006F61642070726F7065726C7920616C694D
:103C5000676E656400000000636865636B20702D0B
:103C60003E7061796C6F6164202B20702D3E6C6515
:103C70006E20646F6573206E6F74206F7665726658
:103C80006C6F7720706275660000000050425546E8
:103C90005F504F4F4C5F42554653495A45206D7512
:103CA0007374206265206269676765722074686159
:103CB0006E204D454D5F414C49474E4D454E540099
:103CC00072656D5F6C656E203C206D61785F75314B
:103CD000365F7400706275665F616C6C6F633A206A
:103CE0007062756620712D3E7061796C6F61642021
:103CF00070726F7065726C7920616C69676E656453
:103D000000000000706275665F616C6C6F633A2042
:103D1000706275662D3E7061796C6F61642070729F
:103D20006F7065726C7920616C69676E6564000004
:103D300070B5040012D0207B60B101280AD002289F
:103D400008D0032806D025A340F27B222CA132A064
:103D5000FEF72CFE0025E08948B10FE01FA340F2DA
:103D6000712238A12CA0FEF721FE002070BD1BA3FC
:103D700040F28A2236A128A0FEF718FEE089401EF4
:103D80000004000CE0811ED1617B207B266889073E
:103D90000CD5206930B911A34FF4267232A11EA0B0
:103DA000FEF704FE21692046884708E003280CD06E
:103DB00001280DD002280BD02046FFF735FB6D1CE3
:103DC000EDB23400C7D1284670BD21460D2001E078
:103DD00021460C20FFF7E2FCF1E700002E2E5C6C80
:103DE0007769705C6C7769702D312E342E315C737D
:103DF00072635C636F72655C706275662E6300004F
:103E0000706275665F667265653A2073616E6520E3
:103E10007479706500000000417373657274696F96
:103E20006E2022257322206661696C6564206174AE
:103E3000206C696E6520256420696E2025730D0A4B
:103E4000000000007020213D204E554C4C00000029
:103E5000706275665F667265653A20702D3E7265A8
:103E600066203E203000000070632D3E6375737441
:103E70006F6D5F667265655F66756E6374696F6EA0
:103E800020213D204E554C4C0000000070B5264DC1
:103E900004466868844205D224A3F2222CA132A0F1
:103EA000FEF784FDA868844205D320A3F32239A13C
:103EB0002DA0FEF77BFD207928B11CA3F4223CA1A4
:103EC00029A0FEF773FD2088B0F57A5F05D917A306
:103ED000F7223EA124A0FEF769FD2188686801440D
:103EE0008C420ED00A7962B9AA68914209D0EA6878
:103EF0008A4200D1EC600A8822800B88221A811C39
:103F00005A5261880144A1420CD00A79002A09D191
:103F1000EA68A24200D1E96022880A802288091A50
:103F2000801C115270BD0000A81900202E2E5C6C60
:103F30007769705C6C7769702D312E342E315C732B
:103F400072635C636F72655C6D656D2E630000006B
:103F5000706C75675F686F6C65733A206D656D2076
:103F60003E3D2072616D0000417373657274696F2C
:103F70006E2022257322206661696C65642061745D
:103F8000206C696E6520256420696E2025730D0AFA
:103F900000000000706C75675F686F6C65733A2095
:103FA0006D656D203C2072616D5F656E6400000080
:103FB000706C75675F686F6C65733A206D656D2D09
:103FC0003E75736564203D3D20300000706C756760
:103FD0005F686F6C65733A206D656D2D3E6E657818
:103FE00074203C3D204D454D5F53495A455F414C3F
:103FF00049474E454400000038B5CA78082A0CD11C
:1040000011F8042B02F07F0531F8022B11F8013B67
:104010000091D0F83C422946A04738BD70B504460F
:1040200090F87C007F2803D0052801D004283FD1D8
:104030004A791AB123681B789A4239D109798029C3
:1040400025D009DC01291CD0022931D17F2801D0DB
:1040500005282DD1042126E081291ED0822927D1CF
:104060002046FFF789F8D4F89810054609B1204694
:1040700088472168FF2008702946204601F04EFD40
:1040800010E07F2801D0042812D105210BE005287B
:1040900001D004280CD17F2105E0D4F8941009B197
:1040A0002046884700212046BDE8704001F0EABD67
:1040B00070BD00002DE9FE43044608784FF000086B
:1040C00000F07F068878012818D00879A51900F03B
:1040D0007F07D4F84001007885F8440195F8B400D2
:1040E000B84207D0D4F8DC313A46314620469847EA
:1040F00085F8B47095F8B40028B329E020680078FA
:10410000B0421ED100F5E060ADF8000001228DF84C
:1041100003208DF8028094F87C108DF8041094F838
:10412000E031404633B141F080018DF8041084F84D
:10413000E00101E084F8E0216946D4F8E401FEF7EB
:1041400059FFBDE8FE83D4F8D82131462046904778
:1041500095F8B4000F28F4D000251CE0D4F8A00096
:1041600050F82500C0F307418E4212D187B2D4F82F
:10417000A40030F91500FCF7FBF93B46094A294633
:104180002046CDF80080FEF789F8D4F8A41021F875
:1041900015006D1CEDB2D4F89C000078A842DDD863
:1041A000CFE70000A10400082DE9F04F894604463E
:1041B0000222002199F8020091B00D4610B10128A9
:1041C0007ED098E06669A369B0889B8820B992E0A8
:1041D000022A04D0042A0FD09842F9D98BE0B9F80A
:1041E0000070626852F830C0DCF818C0DCF800C01B
:1041F000BC450CD198427ED8F7886268F80000EB85
:10420000C50B002652F80B00D0F8088046E06D1C64
:10421000401C80B2EDB29842E4D96CE000200990D5
:104220000A90636853F80B20182303EB0613D25847
:104230005FEA020A63D09AF8002012F0FF020592AA
:104240002AD00A440F9299F80330B2EBC30F23D857
:1042500009AACDE9002001F0070209EBD1010346CC
:104260000290091D0598FCF731F905980121401EBF
:1042700001EBE0000E900EAA00200092CDE90101B2
:10428000DAF8000009ABC0F30722010C2046FEF764
:1042900091FDA0BB0F98C1B2761CF6B298F8000051
:1042A000B042BBD8E06830B3616851F83710896D0F
:1042B0000E8806B330F91500FCF75AF9002000E02B
:1042C0000AE000903346294620462269FDF7E6FFC2
:1042D000E16821F815000EE06069A26901210089FA
:1042E000128930B907E001290AD004291BD0052919
:1042F0003CD09042F7D9002011B0BDE8F08F3BE0F0
:10430000B9F80030D4F8041051F83060B669366856
:104310009E4201D1042116E06D1C401C80B2EDB21A
:104320009042F1D9E7E7616851F83010896A0B785B
:10433000FD2B07D0D9B2FC2908D0FF291ED0FE29B9
:104340001CD019E005219042CFD9D4E7A16805EB34
:10435000C50311F81360F60706D0062000EB4300F2
:104360000144D4F8E4012CE09042C4D86A462946BE
:104370002046FEF798FD08B3FF20BDE7A16805EBD6
:10438000C506022000EB4607C85FFCF7F1F8A168FC
:10439000C853A168042000EB4607C85FFCF7E8F8A3
:1043A000A168C853A06810F8161021F0010100F8A8
:1043B000161029462046FDF70DFE9CE76946D4F805
:1043C000E401FEF717FE96E72DE9F04F8DB00026C9
:1043D0008DF808600C9604464069A36981460D4635
:1043E00000881A883146D8B14FF0040C904217D893
:1043F00067680CEBC00817F80880B8F1010F72D994
:1044000057F83070B5F80080BF693F68474502D162
:104410000127039125E0491C401CC9B280B2E5E7A1
:10442000B9F802005B88002100285CD0042798427C
:1044300059D8626807EBC00C12F80CC0BCF1030F2E
:1044400051D952F83020B5F800C0926A126862451E
:1044500011D103916168022751F83000806B007818
:104460000C90E8784FF00069082809D0CDE9006980
:1044700000233A469EE0491C401CC9B280B2D6E7F0
:1044800002AB3A4620460399FEF795FEE8B9012FA4
:1044900002D0022F0DD018E09DF80810C1EBC10129
:1044A00001EB410104EB810191F82A10042921D08C
:1044B0000BE09DF80810C1EBC10101EB410104EBD9
:1044C000810191F82A10052914D029794909DFF8CA
:1044D0006084DFF860A405F108020DF1180B089262
:1044E00007296FD200E069E0DFE801F009FEFDFC7A
:1044F00086FBFA00297980297ED00621E7E7012F83
:1045000002D0002879D053E0F0BB9DF80800C0EB42
:10451000C00000EB400004EB800090F82A10022954
:1045200046D1B0F97400411C1FD0FCF721F89DF86A
:10453000081040F6B833C1EBC10101EB410104EBB7
:104540008101FD4AA1F8740000969DF808102046EC
:10455000FDF7A4FE01469DF80800C0EBC00000EB8B
:10456000400004EB8000A0F874109DF80800C0EB38
:10457000C00000EB400004EB8000018E059190F834
:10458000328090F82B1000E012E02879C0F300127E
:1045900091427DD1C0F34200C0F107026B1D0A9227
:1045A0009DF808102046FDF75BFE002871D10CE055
:1045B0000023F3E320460399FEF77CFD0DB0FF20B6
:1045C000BDE8F08FEBE3059BEAE39DF808002021AE
:1045D000C0EBC00000EB400004EB800090F82B0023
:1045E00041EA00108DF81800012059460E54401C75
:1045F0000828FBD306AB01E0E5E324E0394620467A
:10460000039A01F017FA9DF80800C0EBC00000EB18
:10461000400004EB800090F82B1079B15FF00001AE
:1046200080F82B102879C0077DD09DF8081020460F
:10463000FDF7FCFD20B1CDE90080C4E70121EFE7E3
:104640009DF80810FDE39DF80800C0EBC00000EBEA
:10465000400004EB800090F82A100329A8D1B0F99B
:104660007400411C22D0FBF783FF01469DF808002F
:1046700040F6B833C0EBC00000EB400004EB800014
:10468000AD4AA0F8741000969DF80810204601E08D
:104690009EE09EE0FDF702FE9DF80810C1EBC1010F
:1046A00001EB410104EB8101A1F874009DF80800C1
:1046B000C0EBC00000EB400004EB8000018E0591D0
:1046C00090F8328090F82B102879C0F300129142B4
:1046D0007ED1C0F34200C0F107026B1D0A9204E0D4
:1046E000F6E3BFE361E254E13FE09DF808102046A5
:1046F000FDF7B6FD00286CD19DF80800C0EBC000A6
:1047000000EB400004EB800191F82B00F8B1002091
:1047100081F82B002979C9071BD000BF9DF808003C
:10472000C0EBC00000E060E300EB400004EB800061
:10473000B0F97400FBF71CFF9DF80810C1EBC10134
:1047400001EB410104EB8101A1F87400FFE10120BC
:10475000DEE7602141EA00108DF81800012059467B
:104760000E54401C0828FBD31EE2012F6ED00028F7
:104770007FF4C9AE9DF80800C0EBC00000EB40001C
:1047800004EB800090F82A100229F1D1B0F97400EE
:10479000411C23D0FBF7ECFE01469DF8080040F6D3
:1047A000B833C0EBC00000EB400004EB8000624A6D
:1047B000A0F8741000969DF808102046FDF76EFDD5
:1047C00001469DF80800C0EBC00000EB400001E08E
:1047D00096E0ACE004EB8000A0F874109DF808109F
:1047E000C1EBC10000EB400004EB8000028E05929B
:1047F00090F8328090F82B202879C0F30010824284
:104800007ED10AAA2046FEF7F5FC0A98002885D03A
:1048100007289DF80800C0EBC00000EB400070D9ED
:1048200004EB800090F82B10F1B3002280F82B20CD
:1048300010018DF818009DF808100BF101030722F4
:104840002046FEF793FD002871D18DE7B5F80510DD
:10485000059195F807A040B102AA39462046FEF717
:104860008EFC20B1CDE900A8ADE65146FEE3022062
:10487000CDE900A09DF808102046059B039AFEF79D
:104880001DFD28794108C90726D09DF80810C0F3FE
:104890008100C1EBC10101EB4101C0F1040004EB57
:1048A00081010A90486300E04CE09DF80810204622
:1048B000089B0A9AFDF7D4FC08BB9DF80810204617
:1048C000FDF7B4FC10B1CDE900A07CE69DF808101E
:1048D000204600F0F7FF18E0C00716D0287A697A62
:1048E000EA7A00EB0120A97A090401EB026142187F
:1048F0000A929DF80810204601F0B6F928B101E0AF
:10490000FCE121E0CDE900A95DE660208DF818000A
:1049100005988DF81900000A8DF81A008DF81BA073
:10492000042059460E54401C0828FBD33CE195E076
:104930002100000800000305AD21000820460C9965
:10494000904752E2012271E704EB800191F82B00BD
:10495000A8B1002081F82B000A9A0001C2F10703D8
:1049600040EA4300401C8DF818009DF808100BF138
:1049700001032046FEF7FAFC00286FD101E0012078
:10498000E8E759460A9800E00E54401C0828FBD37B
:104990000AE1012F50D000287FF4B5AD9DF8080042
:1049A000C0EBC00000EB400004EB800090F82A1040
:1049B0000329F1D1B0F97400411C20D0FBF7D8FDD8
:1049C00001469DF8080040F6B833C0EBC00000EB8C
:1049D000400004EB8000FC4AA0F8741000969DF89B
:1049E00008102046FDF75AFC01469DF80800C0EB70
:1049F000C00000EB400004EB8000A0F874109DF8AC
:104A00000800C0EBC00000EB400004EB8000B0F8F1
:104A100030A090F8328028794108C90771D0C0F3DE
:104A20008100C0F104020A929DF808102046089BFC
:104A3000FDF716FCE8BB6AE0B5F80510ED798A468B
:104A400050B102AA39462046FEF799FB38B15346C9
:104A5000CDE900583A46ADE50B46F9E78DE1032074
:104A6000CDE9005053469DF808102046039AFEF702
:104A700025FC9DF808102046FEF78DFF20B1CDE9FA
:104A8000005053463A4695E50AAA9DF8081020467C
:104A9000FEF7B0FB0A9A042A16D941208DF81800B7
:104AA0008DF819A04FEA1A208DF81A008DF81B50C6
:104AB00000E06BE08DF81C20100A8DF81D00100C32
:104AC0008DF81E00100E5AE2C2F10400432141EAA3
:104AD00080008DF818008DF819A04FEA1A208DF883
:104AE0001A008DF81B500BF104039DF808102046A6
:104AF000FEF73CFC08B1534661E10A985946001D97
:104B000002E030E00E54401C0828FBD33FE19DF842
:104B10000800C0EBC00000EB400004EB8000B0F9DF
:104B20007400FBF725FD9DF80810C1EBC10101EBF6
:104B3000410104EB8101A1F874009DF808100A9866
:104B4000C1EBC10101EB410104EB810148639DF818
:104B500008100120C1EBC10101EB410104EB81010F
:104B600081F82A0071E1C00715D0297A687A01EB33
:104B70000021A87A0204E87A02EB00600A180A927F
:104B80009DF80810204601F06FF820B153463A46D0
:104B9000CDE900890EE560208DF818000120594606
:104BA0000E54401C0828FBD369E2012F5ED0002878
:104BB0007FF4A9AC9DF80800C0EBC00000EB4000FA
:104BC00004EB800090F82A100229F1D1B0F97400AA
:104BD000411C1FD0FBF7CCFC9DF8081040F6B83301
:104BE000C1EBC10101EB410104EB8101764AA1F85F
:104BF000740000969DF808102046FDF74FFB014613
:104C00009DF80800C0EBC00000EB400004EB800002
:104C1000A0F874109DF808100AAAC1EBC10000EBBF
:104C2000400004EB8000B0F8308090F8325020460D
:104C3000FEF7E0FA0A9A002A3FF470AD9DF80810DA
:104C4000072AC1EBC10000EB400004EB800090F8A4
:104C50002B004FEA00107DD98DF818000BF10103ED
:104C600007222046FEF782FBF0BB08E200289FD116
:104C70009DF80800C0EBC00000EB400004EB800092
:104C800090F82A10032993D1B0F97400411C20D068
:104C9000FBF76EFC01469DF8080040F6B833C0EB08
:104CA000C00000EB400004EB8000474AA0F87410FD
:104CB00000969DF808102046FDF7F0FA01469DF891
:104CC0000800C0EBC00000EB400004EB8000A0F83F
:104CD00074109DF80810C1EBC10000EB400004EB1C
:104CE0008000028E059200E068E090F8328090F833
:104CF0002B202879C0F30010824202D0CDE9008A2F
:104D000061E40AAA2046FEF775FA9DF808100A9A8F
:104D1000C1EBC10000EB400004EB8000072A90F8D3
:104D20002B004FEA00101BD98DF818000BF101037E
:104D300007222046FEF71AFBF8B99DF80800C0EBE1
:104D4000C00000EB400004EB800090F82B1029B16C
:104D5000002100E025E080F82B1090E10121F8E728
:104D6000C2F1070340EA4300401C8DF818000BF124
:104D700001032046FEF7FAFA10B1CDE9008922E4DA
:104D800059460A9800E00E54401C0828FBD306AB95
:104D900039462046039A00F04DFE51E494E0F1E3D9
:104DA000F1E3C2F1070340EA4300401C8DF818000C
:104DB0000BF101032046FEF7D9FA38B14346CDE99D
:104DC00000593A4647E609E0AD21000859460A98DD
:104DD00000E00E54401C0828FBD350E1E97AAD688E
:104DE000012F61F31F6501D018B195E20028D4D0DE
:104DF00092E29DF80800C0EBC00000EB400004EB1D
:104E00008000B0F97400FBF7B3FB9DF80810C1EB0C
:104E1000C10101EB410104EB8101A1F874009DF88F
:104E200008108020C1EBC10101EB410104EB8101BD
:104E300081F82A009DF80800C0EBC00000EB40009C
:104E400000E0AEE004EB8000C5629DF80800C0EB16
:104E5000C00000EB400004EB8000826F002A7FF46A
:104E60006DAD59E22979012F01F0030A0BD0BAF197
:104E7000000F7DD0BAF1020F7AD0BAF1010F3FF4E2
:104E80004DACFFF795BBBAF1000F09D0BAF1010F95
:104E900078D0BAF1020F6DD0BAF1030F6AD03BE2BD
:104EA000B5F80510EE79894628B1287A7F2804D90B
:104EB000FC480B4636E00B4606E002AA394620467F
:104EC000FEF75DF928B14B46CDE900683A46C2E5E8
:104ED0004EE20520CDE900604B469DF808102046C3
:104EE000039AFEF7EBF92879C0F380019DF80800DA
:104EF000C0EBC00000EB400004EB800080F85C10C9
:104F00009DF80800297AC0EBC00000EB400004EBDC
:104F1000800080F85D109DF808102046FEF73BFDEC
:104F200020B14B46CDE900603A4694E50AAA9DF8C7
:104F300008102046FEF75EF99DF808000A99C0EBBC
:104F4000C00000EB400004EB80000166C2208DF839
:104F500018008DF819904FEA19208DF81A000A9858
:104F60008DF81C00010A8DF81B608DF81D1002E001
:104F7000EBE007E019E0010C8DF81E10000E8DF833
:104F80001F00C1E300287FF47CAF9DF80810C1EB3F
:104F9000C10000EB400004EB800090F82A000528D7
:104FA000F1D1204600F08EFCB6E10028EBD19DF84F
:104FB0000800C0EBC00000EB400004EB800090F85C
:104FC0002A100529DFD1B0F97400411C1ED0FBF76F
:104FD000CFFA9DF8081040F6B833C1EBC10101EBE0
:104FE000410104EB8101B04AA1F8740000969DF8DC
:104FF00008102046FDF752F99DF80810C1EBC101D9
:1050000001EB410104EB8101A1F874009DF8080057
:10501000BAF1020FC0EBC00000EB400004EB8000CF
:10502000018E059190F832100B9142D1A97980F848
:105030005D1068790AAA00F07F039DF808102046E9
:10504000FEF7D8F80A98D8B99DF80800C0EBC00060
:1050500000EB400004EB800090F8681099420FD1FB
:1050600090F86910C12040EA810000E016E18DF857
:105070001800012059460E54401C0828FBD343E376
:105080009DF80800C3EBC302C0EBC00000EB40007A
:1050900004EB8000416E114481639DF80800C0EB71
:1050A000C00000EB400004EB8000406B81423FF603
:1050B000E8AE9DF808000125C0EBC00000EB400001
:1050C00004EB8001886B48661EE000BF80F86850E2
:1050D0000AAA9DF808102046FEF78CF80A980728BF
:1050E0001FD98DF818500BF1010307229DF8081005
:1050F0002046FEF73BF9E8BB06AB39462046039A4B
:1051000000F098FC6D1CEDB29DF80800C0EBC000EB
:1051100000EB400004EB800090F85D10A942D5D26E
:1051200064E345F080008DF818005D466B1C9DF827
:10513000081020460A9AFEF719F9D8B90A9800E033
:105140002E54401C0828FBD3FEE000287FF499AEC3
:105150009DF80800C0EBC00000EB400004EB8000AD
:1051600090F82A100429F1D1018E059190F832109F
:105170000B9100E0DEE0B0F97400411C1FD0FBF79A
:10518000F7F99DF8081040F6B833C1EBC10101EB07
:10519000410104EB8101444AA1F8740000969DF896
:1051A00008102046FDF77AF801469DF80800C0EB8C
:1051B000C00000EB400004EB8000A0F87410BAF1CE
:1051C000000F07D0A8797F2820D936490B98CDE960
:1051D000000195E5287A7F28F7D82879C0F3800167
:1051E0009DF80800C0EBC00000EB400004EB80001D
:1051F00080F85C109DF80800297AC0EBC00000EB35
:10520000400004EB800080F85D104FE09DF808102E
:105210000AAAC1EBC10101EB410104EB810181F854
:105220005D0068799DF8081000F07F032046FDF7C7
:10523000E1FF0A98C8B99DF80800C0EBC00000EB78
:10524000400004EB800090F8681099420DD190F86E
:105250006910C12040EA81008DF8180001205946EC
:105260000E54401C0828FBD34EE29DF80800C3EB07
:10527000C302C0EBC00000EB400004EB8000416EB5
:10528000114481639DF80800C0EBC00000EB4000B2
:1052900004EB8000406B814208D90B99CDE90018DE
:1052A0002EE5000002000405AD2100089DF808006D
:1052B0000125C0EBC00000EB400004EB8001886BCF
:1052C00048661DE080F868500AAA9DF8081020463C
:1052D000FDF790FF0A9807281FD98DF818500BF199
:1052E000010307229DF808102046FEF73FF808BB8F
:1052F00006AB39462046039A00F09CFB6D1CEDB2CC
:105300009DF80800C0EBC00000EB400004EB8000FB
:1053100090F85D10A942D5D268E245F080008DF882
:1053200018005D466B1C9DF8081020460A9AFEF78F
:105330001DF818B10B99CDE90019E1E40A9800E0D5
:105340002E54401C0828FBD306AB39462046039A4E
:1053500000F070FB9DF808100A98C1EBC10101EB49
:10536000410104EB8101C0F1070081F869003DE2D1
:105370004FF0100A012F3FD000287FF482AD9DF836
:105380000800C0EBC00000EB400004EB8000B0F967
:105390007400411C20D0FBF7EBF801469DF8080093
:1053A00040F6B833C0EBC00000EB400004EB8000D7
:1053B000FF4AA0F8741000969DF808102046FCF7EC
:1053C0006DFF01469DF80800C0EBC00000EB4000F7
:1053D00004EB8000A0F874109DF80810C1EBC10028
:1053E00000EB400004EB800393F86A00F0B301285F
:1053F00074D0022873D0F9E1C8B3287910F0010FF6
:10540000BBD1B5F805B095F8079002AA39462046F9
:10541000FDF7B5FE20B1CDE900985B463A46D1E4F0
:105420000420CDE900905B469DF808102046039AC1
:10543000FDF744FF9DF808100120C1EBC10101EB0D
:10544000410104EB810181F86A002879C0F38001F1
:105450009DF80800C0EBC00000EB400004EB8000AA
:1054600080F85C102879800715D501E01AE126E064
:10547000297A687A01EB0021A87A0204E87A02EB23
:10548000006001449DF80800C0EBC00000EB400044
:1054900004EB80000166A0208DF818008DF81CA098
:1054A0008DF819B04FEA1B208DF81F608DF81A0097
:1054B0008DF81E608DF81B908DF81D6024E19DF81D
:1054C0000800C0EBC00000EB400004EB800090F847
:1054D0006A10012904D0022971D087E11BE189E11A
:1054E000B0F97400411C1FD0FBF742F89DF808107A
:1054F00040F6B833C1EBC10101EB410104EB81017E
:10550000AB4AA1F8740000969DF808102046FCF7FD
:10551000C5FE01469DF80800C0EBC00000EB40004E
:1055200004EB8000A0F87410287900F07F080006D2
:105530009DF80800C0EBC00000EB400004EB8000C9
:1055400090F8681001F101011ED5414519D10221E1
:1055500080F86A109DF80800C0EBC00000EB400026
:1055600004EB800080F868809DF80800C0EBC00064
:1055700000EB400004EB8001686841F86B0FA868FD
:105580004860EFE067E18BE0414547D180F86880F3
:105590006B1D07229DF808102046FCF761FEE8B35A
:1055A0009DF80810C1EBC10101EB410104EB810141
:1055B00091F83220CDE900290B8E71E0FFE72979BF
:1055C000C9073FF45EACB0F97400411C20D0FAF773
:1055D000CFFF01469DF8080040F6B833C0EBC0008D
:1055E00000EB400004EB8000714AA0F874100096B4
:1055F0009DF808102046FCF751FE01469DF8080072
:10560000C0EBC00000EB400004EB8000A0F8741079
:1056100028799DF80810C0F3820000E0E3E0C1EBB8
:10562000C10202EB420204EB8203C0F107022046F2
:105630006C33FCF715FE88BB9DF80800C0EBC0007A
:1056400000EB400004EB8000016E11B1826B9142CF
:105650007ED1A1208DF81800012059460E54401C1F
:105660000828FBD306AB39462046039A00F0E2F93E
:105670009DF808102046FCF7D9FD00283EF4E0AF65
:105680009DF80810C1EBC10101EB410104EB81025F
:1056900092F83210CDE90010138E01E096E0038EEF
:1056A0003A4614E42879C00734D1012083F86A000F
:1056B0002879C0F380019DF80800C0EBC00000EB22
:1056C000400004EB800080F85C102879800712D538
:1056D000287A697AEA7A00EB0120A97A090401EBB9
:1056E000026108449DF80810C1EBC10101EB4101C2
:1056F00004EB81010866A3208DF8180001205946AB
:105700000E54401C0828FBD306AB39462046039AAA
:1057100000F090F96AE0287900F07F08000693F81D
:10572000680000F1010045D540451BD1022083F8F7
:105730006A009DF80800C0EBC00000EB400004EBDD
:10574000800080F868809DF80800C0EBC00000E091
:105750006BE000EB400004EB8000696840F86B1FD1
:10576000A9684160A2208DF818009DF8080006ABDA
:10577000C0EBC00000EB400004EB8000394690F81D
:1057800068008DF819008DF81AA007968DF81B6037
:105790002046039A00F04EF99DF80800C0EBC000C7
:1057A00000EB400004EB800080F868601EE0000021
:1057B000AD210008404516D183F868806B1D072293
:1057C0009DF808102046FCF74BFD60B19DF80800DD
:1057D000C0EBC00000EB400004EB800090F83220EA
:1057E000CDE900295BE7B8F1100FBBD00DB0002068
:1057F000BDE8F08F2879C2073EF4DAAEC0F382002C
:10580000C0F1070220466C33FCF72AFD0028DDD1E9
:105810009DF80800C0EBC00000EB400004EB8000E6
:10582000016E39B1826B914204D090F83220CDE9FB
:10583000002834E7A1208DF81800012059460E54A5
:10584000401C0828FBD306AB39462046039A00F0DB
:10585000F1F8FEF763BF0A4920B1CDE900610023EA
:105860003A46DCE59DF80800C0EBC00000EB4000C4
:1058700004EB800090F83220CDE900210FE7000012
:105880000100040570B5D0F8D0110446884794F89B
:105890008200002809D001212046FDF7FDF90546C8
:1058A000D4F8D41120468847284670BD70B5054607
:1058B00000242146284600F005F8641C14F0FF047B
:1058C000F7D070BD7CB500240D46064600942346F3
:1058D00022460194FDF7F2FCC5EBC50000EB400049
:1058E000002206EB80008118521C81F83C40202ADF
:1058F000F9D380F82940C4627CBD00002DE9FF4740
:10590000044690F88200894600B3A16809EBC905F6
:1059100011F81500C00719D16069018901EB090070
:1059200086B2606850F836008069006800280DDB98
:105930004FF00008CDF80480CDF8088001AA494650
:105940002046CDF80C80FDF7AEFA18B1002004B067
:10595000BDE8F087A068062101EB4501415ABDF87A
:105960000420914211D1092101EB45019DF8072046
:10597000415C914209D10A2101EB4501084408220A
:1059800002A9FAF772FC0028E1D0606850F83600EE
:10599000816D806B0F88068897B1A168022000EBAB
:1059A000450A31F90A00FAF7E3FD3B46154A494634
:1059B0002046CDF80080FCF771FCA26822F80A00AE
:1059C000CEB1A168042000EB4507C85FFAF7D0FD0F
:1059D000642006FB00F30C4A49462046CDF80080BF
:1059E000FCF75CFCA168C853A06810F8151041F0E2
:1059F000010100F8151001AA4946204600F006F8FA
:105A00000120A4E7D51F0008FD1F000830B401EBFA
:105A1000C1010624836804EB4101194413680B603B
:105A200053684B6093688B60D0F8E40130BC11463A
:105A3000FDF7E0BA3EB590F87C40052C01D07F2CF4
:105A400009D10129416908D0498821B111448269ED
:105A5000528891420ED9FF203EBD09880029FAD014
:105A60001144826912889142F5D8426852F8311087
:105A7000896A03E0426852F8311089696A460988E8
:105A8000ADF8001000218DF8021008218DF80310E8
:105A9000002155185C5C491CC9B22C710829F8D347
:105AA000D0F8E4011146FDF7A5FA3EBD7CB580268D
:105AB000DDE906548DF800608DF801301B0A8DF881
:105AC00002308DF80440230A8DF80530230C8DF840
:105AD0000630230E8DF807308DF803506B46FFF724
