:020000040800F2
:1000000030070020C10100082B320008452D0008F0
:100010002932000889050008A140000800000000FE
:10002000000000000000000000000000DD330008B8
:100030001D060008000000002D320008DF33000814
:10004000DB010008DB010008DB010008DB01000820
:10005000DB010008DB0100081F060008DB010008C7
:100060002D0600083306000839060008DB010008E9
:10007000DB010008DB010008DB010008DB010008F0
:10008000DB010008DB010008DB010008DB010008E0
:100090008D050008DB010008DB0100083F060008B1
:1000A000DB010008DB010008DB010008DB010008C0
:1000B000DB01000865350008DB010008DB010008F2
:1000C000DB010008DB010008DB010008DB010008A0
:1000D000DB01000895400008DB010008DB01000897
:1000E00025060008DB010008DB010008DB01000831
:1000F000DB010008DB010008DB010008DB01000870
:10010000DB010008DB010008DB010008DB0100085F
:10011000DB010008DB010008DB010008DB0100084F
:10012000DB010008DB010008DB010008DB0100083F
:10013000DB010008DB010008DB010008DB0100082F
:10014000DB010008DB010008DB010008DB0100081F
:10015000DB010008DB010008DB010008DB0100080F
:10016000DB010008DB010008DB010008DB010008FF
:10017000DB010008DB010008DB01000800000000D3
:10018000DB010008DB010008DB010008DB010008DF
:10019000DB010008DB010008DB010008DB010008CF
:1001A000DB010008DB010008DB010008DFF80CD0F0
:1001B00000F07AF800480047E140000830070020CE
:1001C0000648804706480047FEE7FEE7FEE7FEE7F1
:1001D000FEE7FEE7FEE7FEE7FEE7FEE7553500082F
:1001E000AD0100082DE9F05F0546002092469B46D0
:1001F00088460646814640241BE02846414647463D
:10020000224600F041F853465A46C01A914110D395
:1002100011461846224600F028F82D1A67EB01080F
:100220004F4622460120002100F01FF817EB00097D
:100230004E41201EA4F10104DFDC484631462A4627
:100240004346BDE8F09F40EA01039B0703D009E065
:1002500008C9121F08C0042AFAD203E011F8013BB2
:1002600000F8013B521EF9D27047202A04DB203AE5
:1002700000FA02F1002070479140C2F1200320FAF9
:1002800003F3194390407047202A04DB203A21FAF7
:1002900002F00021704721FA02F3D040C2F120029F
:1002A0009140084319467047064C074D06E0E06848
:1002B00040F0010394E8070098471034AC42F6D3AD
:1002C000FFF778FF64410008844100080F4810B52B
:1002D0000D4901600021416081600161017680F873
:1002E00020104162C16281620122C261C16080F856
:1002F0003010416100F0D9FA002803D0BDE8104069
:1003000000F0A6B910BD0000002201406C010020E1
:10031000464910B54A6822F440324A604A68436848
:100320001A434A6001684A6822F480724A60016890
:100330004A68036942EA03224A6001684A6822F077
:1003400040724A6001684A6883681A434A600168DB
:100350008A6822F400628A6001688A68C3681A4366
:100360008A60816A6FF07062D14201688A6822F007
:1003700070628A6001688A680CD0836A1A438A6056
:1003800001688A6822F040528A6001688A68C36AFC
:100390001A4301E022F040528A6001688A6822F024
:1003A00002028A6001688A68037E42EA43028A6028
:1003B00090F82010002901684A680FD042F40062CA
:1003C0004A6001684A6822F460424A6001684A68EB
:1003D000174C436A04EB43331A4301E022F40062F2
:1003E0004A600168CA6A22F47002CA620168CA6A75
:1003F000838B104C04EB03531A43CA6201688A686A
:1004000022F400728A6001688A6890F8303042EA0B
:1004100043228A6001688A6822F480628A600168E7
:100420008A68406942EA8020886010BD002301404C
:1004300000E0FFFF0000F0FF70B5082002F0F8FEBA
:10044000C4B2082002F0F4FE084D000A44EA00207D
:100450006881072002F0ECFEC4B2072002F0E8FE3B
:10046000000A44EA0020A88170BD000000010020BD
:1004700070B50A4C00252078012800D125706078DD
:10048000012806D1657003F009FC03F025FC03F098
:1004900041FCA078012800D1A57070BD04000020A7
:1004A00070B503F0C3F903F08BFB124C0025608993
:1004B000401C80B260810A2802D3658103F05AFA99
:1004C00003F026F9E088401C80B2E080322804D393
:1004D000E5800221084801F0E0F82089401C80B244
:1004E0002081642804D32581BDE8704003F032B92F
:1004F00070BD0000120000200004024010B5064844
:1005000003F09AF80448001D03F096F80248BDE88D
:100510001040083003F090B84C00002070B503F094
:10052000ABF90B4C208803F0D5F80A4D2880608881
:1005300003F0D0F86880A08803F0CCF8A880E088A9
:1005400003F0C8F8E880208903F0C4F8288170BD62
:100550005A010020000100200A4800224188491C5D
:1005600089B24180142901D3428003E00A2901D0D5
:10057000002905D10178002902D0027003F064B986
:100580007047000030000020FEE70000014800F046
:100590002EBC0000B401002030B51F488BB01D49AF
:1005A000016000240476012545768476C5760477BB
:1005B00044774FF4A0218460C0E9034129054161DB
:1005C0002821416000F011FD08B100F041F80394CA
:1005D0000E200494CDE90850CDE906450594009419
:1005E0000194029469460C4800F0F0FA08B100F05A
:1005F0002FF8094800F0EAFD08B100F029F80221BF
:10060000054800F06DFA002801D000F021F80BB089
:1006100030BD000000640040B4010020704701209C
:1006200000F012BF4FF4805000F00EBF042000F025
:100630000BBF082000F008BF102000F005BF10B568
:10064000802000F001FFBDE81040202000F0FCBE3B
:10065000FEE700002DE9F04786B0012410270226AE
:10066000CDE90074DFF8B8A0CDE9024669465046EE
:1006700000F0F6FE4FF4B650CDE90004DFF8A48098
:10068000CDE902466946404600F0EAFE40F20340EA
:10069000CDE90004CDE902466946234800F0E0FEBA
:1006A0004EF67E00CDE90004CDE9024669461F48BA
:1006B00000F0D6FE7820CDE90004DFF87490CDE993
:1006C00002466946484600F0CBFE002548F21C0071
:1006D000CDE9000569461748029500F0C1FECDE955
:1006E000006569461448029500F0BAFECDE9007530
:1006F00069464046029500F0B3FECDE900456946E3
:100700005046029500F0ACFE0420CDE90005694694
:100710004846029500F0A4FE06B0BDE8F087000050
:100720000000024000180240000402400024024081
:100730000028024000200240000C024078B500244E
:10074000009490F83C20012A19D0012280F83C2026
:100750000A6807230568092A13D9EE680A3A02EBEA
:10076000420293409E43EE600B788A680A3B03EB9B
:1007700043039A400368DD682A43DA6010E00220F0
:1007800078BD2E6902EB420293409E432E610B78A6
:100790008A6803EB43039A4003681D692A431A6180
:1007A0004A681F23072A13D205686E6B521E02EB9C
:1007B000820293409E436E630A8893B20A79521E66
:1007C00002EB820293400268556B2B43536327E090
:1007D00005680D2A12D22E6BD21F02EB82029340C3
:1007E0009E432E630B790A88DB1F92B203EB8303CF
:1007F0009A4003681D6B2A431A6311E0EE6A0D3AB2
:1008000002EB820293409E43EE620B790A880D3B15
:1008100092B203EB83039A400368DD6A2A43DA62EB
:100820001B4B0568194A9D420AD10D68122D07D14C
:10083000556825F400055560556845F480055560F8
:1008400005689D421DD1134D0B68AB4201D0112BA1
:1008500017D1536823F480035360536843F40003B3
:1008600053600968A9420CD10B490C4A0968B1FBD5
:10087000F2F101EB8101490000E0491E00910029DD
:10088000FBD180F83C40002078BD000000230140EF
:1008900000200140120000107800002040420F00AC
:1008A000006C70470068C06C704770B504004FF072
:1008B000000503D0206C002610B107E0012070BDB8
:1008C000204600F01DF8666484F83C60206CC00689
:1008D00010D4206C20F4885040F0020020642046A0
:1008E000FFF716FD6664206C20F0020040F0010066
:1008F000206400E0012584F83C60284670BD0000BB
:100900000B4800B5026887B0002142F480620260A3
:10091000006800F4806005904FF4C06000900320F0
:10092000CDE901016946034800F09AFD07B000BD1A
:1009300044380240001402402DE9F04104460068AA
:100940000D4681684FF0000749050BD58068C0054A
:1009500008D5206C40F02000206484F83C70012011
:10096000BDE8F08100F0A6FE064613E0681C11D039
:1009700025B100F09FFE801BA8420BD920680068BB
:10098000800707D4206C40F00400206484F83C7099
:100990000320E5E7206800688007E7D521686FF04D
:1009A00012000860206C40F40070206420688168A8
:1009B00011F0405F13D1217E89B9C16A11F4700F23
:1009C00002D0806840050AD4206C20F48070206436
:1009D000206CC00403D4206C40F00100206400208F
:1009E000BEE7000018B50021009190F83C20012AD4
:1009F00007D0012280F83C2002689368DB0702D010
:100A000011E0022018BD936843F0010393602E4A61
:100A10002E4B1268B2FBF3F202EB420200E0521ED0
:100A20000092002AFBD102689368DB0742D0036C76
:100A300040F20164A34343F48073036453685B058D
:100A400005D5036C23F4005343F480530364036C13
:100A5000DB0404D5436C23F00603436400E04164E7
:100A600080F83C101A496FF022031360496800684F
:100A7000CA06184906D0884224D1816811F0405F27
:100A800013D01FE08842F8D0134A904203D1D1F826
:100A90000423D206F1D0114A904213D1D1F80413A5
:100AA00001F01F011029E8D30CE0816841F080417A
:100AB000816007E0016C41F010010164416C41F07C
:100AC00001014164002018BD7800002040420F0061
:100AD000002301400020014000210140002201408C
:100AE00090F82020012A07D0022A05D0416A41F45B
:100AF0008021416201207047006842690A434261D7
:100B000000207047F0B590F820500468A468012DCB
:100B100005D0022D03D0416A41F4802153E014F046
:100B2000406F01D1E5004BD5C4F30164022C03D919
:100B3000416A41F4000146E00125A5401D608D6831
:100B40004FF4C0739DB1CE6835434E6845EAC60583
:100B5000066803EB0417F5514FF4C275076805EBFF
:100B600004150E697E51097D012905D009E00E8822
:100B7000CD6845EA4655EBE701684E5946F4807664
:100B80004E511179D2F805504FF4C67641EA052549
:100B9000016806EB04168D511178D2F801204FF44C
:100BA000C47541EA0221026805EB04155151006841
:100BB00003EB0411425842F0010242500020F0BD04
:100BC000416A41F4001141620120F0BD10B590F876
:100BD0002020012A07D0022A05D0416A41F4802151
:100BE0004162012010BD3B48D0F8002242F00102D2
:100BF000C0F80022D0F8002222F47C52C0F8002273
:100C0000D0F800224B6A42EA0322C0F800220A7D93
:100C100002F01F0301229A40D0F81C329343C0F81F
:100C20001C32CB69B3B9D0F80C329343C0F80C3204
:100C30008C894B6864F31F434C6900EBC404C4F80F
:100C400040320C890B6864F31F434C6900EBC40409
:100C5000C4F84432CB69012B16D1D0F80C321343BF
:100C6000C0F80C320C884B6864F31F434C6900EBEE
:100C7000C404C4F840320C89CB6864F31F434C6948
:100C800000EBC404C4F844328B69002BD0F8043262
:100C90000ED01343C0F804320B69002BD0F8143285
:100CA00008D01343C0F81432096A012904D008E0BF
:100CB0009343EFE79343F5E7D0F81C121143C0F8D4
:100CC0001C12D0F8001221F00101C0F8001200201F
:100CD00010BD000000640040704730B590F820401F
:100CE000012C05D0022C03D0416A41F480215DE043
:100CF0000468002955D02469A40754D04FF4D8744F
:100D0000056804EB01142D5915F00405956005687C
:100D10002D594ED0ED08556005682C5904F0020499
:100D2000D4604FF4DA74056804EB01142D5905F012
:100D30000F05156105682D59C5F3072595610568EF
:100D40002C59240C54614FF4DC72046802EB01123C
:100D5000A4581C700468A458240A5C700468A45841
:100D6000240C9C700468A258120EDA704FF4DE72E4
:100D7000046802EB0112A4581C710468A458240AE8
:100D80005C710468A458240C9C710468A258120E6B
:100D9000DA71006881B1016941F020010161002030
:100DA00030BDE468A8E7416A41F4001141620120C6
:100DB00030BD6D0D1560AFE7C16841F02001C16025
:100DC000EDE70246002092F82010012901D0022907
:100DD0000CD111688A68520100D501208A6812017D
:100DE00000D5401C8968C90000D5401C70472DE91A
:100DF000F05F0546006800244669D0F804908768D3
:100E0000D0F80CB0D0F810A0D0F81880F10748D076
:100E1000F90714D001218160B80703D5284600F0F6
:100E200002FA0CE0780702D54FF4006407E03807B7
:100E300002D54FF4805402E0284600F0F3F9F8059B
:100E400016D529684FF480708860B80503D5284608
:100E500000F0EBF90CE0780502D544F4005407E00B
:100E6000380502D544F4804402E0284600F0DCF95D
:100E7000F80316D529684FF480308860B80303D58D
:100E8000284600F0D4F90CE0780302D544F400447D
:100E900007E0380302D544F4803402E0284600F02D
:100EA000C5F9300707D55FEACB6004D52968102063
:100EB00044F40074C86070074FF0080707D55FEA74
:100EC0000B7004D52868C760284600F055F9B007B4
:100ED00006D52868C068800702D0284600F04EF981
:100EE000700607D55FEACA6004D52968102044F46B
:100EF00080640861B00607D55FEA0A7004D52868E7
:100F00000761284600F05EF9F00606D528680069FA
:100F1000800702D0284600F056F9B00308D55FEAF2
:100F2000C96005D5296810204860284600F04CF9B2
:100F3000F00307D55FEA097004D5286847602846A2
:100F400000F076F9300446D55FEA497040D5F005E7
:100F500004D55FEAC87001D044F00104B00504D59F
:100F60005FEA887001D544F00204700504D55FEA99
:100F7000487001D544F00404300529D518F0700FED
:100F800026D008F07000402815D006DC102809D0C3
:100F900020280AD0302816D10AE050280ED0602828
:100FA00011D10EE044F008040DE044F010040AE012
:100FB00044F0200407E044F0400404E044F08004DE
:100FC00001E044F480742868816921F07001816136
:100FD000296804204860002C05D0686A20436862B4
:100FE0002846FFF779FEBDE8F09F70B5040003D0F6
:100FF00094F8200010B104E0012070BD204600F0FC
:1010000081F82068016821F00201016000F052FBC4
:101010000546052604E000F04DFB401B0A2811D8C8
:10102000206840688007F6D42068016841F001011B
:10103000016000F03FFB05460BE000F03BFB401B6E
:101040000A2806D9606A40F40030606284F82060A3
:10105000D2E720684068C007EFD0207E01282068D2
:1010600001683DD021F080010160607E0128206888
:10107000016838D021F040010160A07E012820687D
:10108000016833D021F020010160E07E0128206852
:1010900001682ED041F010010160207F01282068F6
:1010A000016829D021F008010160607F01282068D3
:1010B000016824D021F004010160D4E90201084351
:1010C000D4E90412114308436168491E08432168AA
:1010D000C86100206062012084F82000002070BDFB
:1010E00041F08001C0E741F04001C5E741F0200137
:1010F000CAE721F01001CFE741F00801D4E741F041
:101100000401D9E7F0B5194887B0016841F00071D2
:1011100001600068022400F0007005904FF4005058
:1011200001268DE8510003250927CDE903576946BB
:101130000F4800F095F920028DE85100CDE90357E2
:1011400069460C4800F08CF900220121142000F0BF
:10115000AFFD01221146162000F0AAFD142000F078
:101160009AFD162000F097FD07B0F0BD4038024010
:10117000001C0240002002407047000010B50F4BD9
:1011800086B00446A3F11C020021FFF7A6FD00284B
:1011900011D10B490120087002212046FFF7A0FC65
:1011A000064914220C396846FFF74DF803481C38ED
:1011B0000FC802F07DFC06B010BD000098000020B2
:1011C00010000020704770477047000070B504465B
:1011D00090F82000012804D0606A40F4002060628A
:1011E00018E0022084F820002068016821F0010145
:1011F000016000F05FFA05460EE000BF00F05AFA09
:10120000401B0A2808D9606A40F40030606205205B
:1012100084F82000012070BD20684068C007EDD12F
:10122000606270BD70477047704770477047704785
:1012300070472DE9F0410446876D00F03BFA064601
:1012400094F835000025022806D08020606584F8D7
:1012500034500120BDE8F0812068016821F01601BA
:1012600001602068416921F080014161206C08B96A
:10127000A06C20B12068016821F00801016020689D
:10128000016821F0010101600BE000F013FA801BFE
:10129000052806D92020606504F8345F03206070BB
:1012A000D8E720680068C007EFD194F85C103F20B1
:1012B0008840B86004F8345F012060700020C9E7FE
:1012C00090F83510022903D0802141650120704734
:1012D000052180F835100068016821F001010160E6
:1012E000002070472DE9F0414E4800264FF4805110
:1012F00006814D4800F0CCF94C4D4D4F4D4C78B91E
:101300002088401C80B22080052809D326802878B8
:10131000002240F0010028702021384600F0C5F975
:10132000DFF814811021404600F0B2F980B96088DE
:10133000401C80B2608005280AD36680287800228D
:1013400040F0020028704FF40061384600F0ADF91B
:1013500080213A4800F09CF950B9A088401C80B226
:10136000A080052804D3A680287840F004002870C7
:101370000421334800F08CF978B9E088401C80B231
:10138000E080052809D3E6802878002240F0080094
:1013900028700821384600F088F90821294800F013
:1013A00077F978B92089401C80B22081052809D3BB
:1013B00026812878002240F010002870102138463D
:1013C00000F073F92021404600F062F978B9608995
:1013D000401C80B26081052809D3668128780022EC
:1013E00040F0200028700421384600F05EF9012109
:1013F000384600F04DF9002811D1A089401C80B278
:10140000A08105280BD3A6812878002240F0400057
:1014100028703846BDE8F041402100F046B9BDE8EB
:10142000F0810000D00200200020024015000020C2
:10143000002402400E010020000C0240001802406F
:101440000028024000000240044910B50A68024228
:1014500002D00860FFF746FF10BD0000143C0140B9
:101460002DE9F84FDFF8F4A1002201240AF1040B62
:1014700003254FF00F090BF1040E00BF0B6804FAAF
:1014800002F63340B3426FD10F7907F00307012F03
:1014900001D0022F16D187684FEA420805FA08FCEE
:1014A00027EA0C07D1F80CC00CFA08FC4CEA070C30
:1014B000C0F808C04768B7430E79C6F300169640D7
:1014C0003E4346600E79F643B6070AD0C7684FEA36
:1014D000420C05FA0CF6B7438E6806FA0CF63E434A
:1014E000C6600E7906F00306022E10D1D60800EB76
:1014F0008608D8F8206057074FEAD76C09FA0CF72E
:10150000BE430F6907FA0CF73743C8F82070066826
:101510004FEA420C05FA0CF7BE430F7907F00307B8
:1015200007FA0CF7374307604E68F6001CD54C4E9F
:10153000376847F480473760366822F0030706F4BF
:1015400080460096474E07EB060CDCF808689707C4
:101550003F0F09FA07F826EA0806DFF80C81404534
:1015600003D14FF0000841E072E0DFF80081404510
:1015700002D14FF0010839E0DFF8F480404502D194
:101580004FF0020832E0DFF8EC80404502D14FF026
:1015900003082BE0DFF8E080404502D14FF004085B
:1015A00024E0DFF8D880404502D14FF005081DE067
:1015B000DFF8CC80404502D14FF0060816E0DFF896
:1015C000C480404502D14FF007080FE0DFF8B88033
:1015D000404502D14FF0080808E0DFF8B0804045F0
:1015E00002D14FF0090801E04FF00A0808FA07F8A5
:1015F00048EA0608CCF80888DAF800605746D1F8BF
:1016000004C09E435FEACC3C00D51E433E60DBF83D
:1016100000605F46D1F804C09E435FEA8C3C00D571
:101620001E433E60DEF800607746D1F804C09E435A
:101630005FEACC2C00D51E433E60084F0C373E6855
:10164000D1F804C09E435FEA8C2C00D51E433E6057
:10165000521C102AFFF412AFBDE8F88F003C014085
:1016600044380240003001400000024000040240C3
:1016700000080240000C024000100240001402402A
:1016800000180240001C02400020024000240240DA
:101690000069084000D001207047426921EA020336
:1016A0000A4043EA0241816170470AB18161704793
:1016B0000904FBE701488068704700006C000020C7
:1016C000006C704770B5040025D094F83D000025EB
:1016D00020B984F83C50204600F03EFA242084F8DB
:1016E0003D002068016821F0010101602068016867
:1016F00041F4004101602068016821F4004101606B
:1017000000F0DAFB4D4A6168914201D84C4900E093
:101710004C49884201D2012070BD4B492368B0FB7F
:10172000F1F15E6826F03F060E435E606368934207
:1017300006D94FF4967359434FF47A73B1FBF3F122
:101740002368491C1E6A26F03F063143196261680E
:10175000914210D84900401EB0FBF1F2521CC2F376
:101760000B02042A01D2042022E0B0FBF1F0401C5D
:10177000C0F30B001CE0A268F2B301EBC10303EB62
:101780000116431EB3FBF6F35B1C43F480431B05B9
:1017900049D092B301EBC10202EB0111401EB0FB34
:1017A000F1F0401CC0F30B0040F4804040F40040D6
:1017B0002168CA694CF6FF739A431043C861D4E9A3
:1017C000071001432068026822F0C0021143016043
:1017D000D4E9030101432068826848F2FF339A4349
:1017E00011438160D4E9050108432168CA6822F0E9
:1017F000FF021043C86001E00EE016E020680168B7
:1018000041F0010101602564202084F83D0025633A
:1018100084F83E50002070BD01EB4106431EB3FB2F
:10182000F6F35B1CB3E70120C2E701EB4101401E68
:10183000B0FBF1F0401CC0F30B00B7E7A08601003D
:1018400080841E0000093D0040420F002DE9F84F42
:101850001F4690468A460446DDF82890FFF72AFF87
:10186000054694F83D00202875D1192301226C49C2
:101870002046009501F08AFB0028F5D194F83C0041
:10188000012868D0012084F83C0020680168C9075D
:1018900003D1016841F0010101602068016821F471
:1018A00000610160222084F83D00102084F83E0091
:1018B00000262664C4F824806785608D20855948F9
:1018C000E0622B464A465146204601F075FA002850
:1018D00078D1208D544F68B1012814D00228206897
:1018E000016816D041F48061016020684169806917
:1018F000009087E02068416981690091016841F4A6
:10190000007101607EE02068016821F4806101605F
:10191000F0E721F4806101602068016841F4006112
:10192000E2E7032848D801280AD0022814D04B4601
:10193000002239462046009501F028FBD8BB27E05D
:101940002A464946204601F0A0FBA0BB206800695A
:10195000616A08704DE061E04B460022394620463E
:10196000009501F013FB30BB2068016841F4007161
:10197000016020680069616A0870606A401C6062EA
:10198000218D491E2185618D491E618521682EE0CA
:101990002068016821F48061016020680069616A43
:1019A0000870606A401C6062208D401E2085608D3A
:1019B000401E6085D0E705E02A464946204601F0F2
:1019C00064FB10B10120BDE8F88F20680069616AEE
:1019D0000870606A401C6062218D491E2185618DFE
:1019E000491E618521684A69D24352070AD40969B0
:1019F0000170606A401C6062208D401E2085608DF1
:101A0000401E6085208D00288BD1202084F83D0069
:101A100084F83E6084F83C600020D4E70220D2E7DE
:101A2000020010000000FFFF040001002DE9F84F44
:101A30001F4690468A460446DDF82890FFF73AFE96
:101A4000054694F83D0020287FD119230122404902
:101A50002046009501F09AFA002876D194F83C00CF
:101A6000012872D0012084F83C0020680168C90771
:101A700003D1016841F0010101602068016821F48F
:101A800000610160212084F83D00102084F83E00B0
:101A900000262664C4F824806785608D20852D4843
:101AA000E0622B464A465146204601F0FBF990B9C8
:101AB000206841698069009036E02A464946204600
:101AC00001F016FB50B1206C042804D12068016895
:101AD00041F4007101600120BDE8F88F606A21685F
:101AE00000780861606A401C6062618D491E6185F2
:101AF000218D491E89B2218522685369DB435B072A
:101B00000BD451B100781061606A401C6062608D36
:101B1000401E6085208D401E20852A46494620466D
:101B200001F00EFA0028CED1208D0028C5D154F83E
:101B30003D0B016841F400710160202004F81E098A
:101B4000E67766770020C7E7FFE70220C4E70000DA
:101B5000020010000000FFFF30B587B04020009069
:101B6000122001900120029002200424CDE90304F8
:101B70000B4D69462846FFF773FC802000906946AC
:101B800004942846FFF76CFC0648016841F40011F4
:101B90000160006800F40010059007B030BD00003F
:101BA000000402404038024070B5040011D02168A2
:101BB0004CF6CC400860216845F255500860D4E9E5
:101BC000000141602168A0688860FFF773FD054649
:101BD0000DE0012070BD00BFFFF76CFD401B3028F9
:101BE00005D92068C068800701D0032070BD206837
:101BF000C0688007F0D121684AF6AA20086000205A
:101C000070BD00684AF6AA210160002070470000FC
:101C10000248816802781144816070476C0000209E
:101C20000B4810B5016841F400710160016841F48E
:101C300080610160016841F480710160032000F05F
:101C400057F80F2000F006F800F024F8002010BD2F
:101C5000003C024070B50D4D04464FF47A7128786F
:101C6000B1FBF0F00A490968B1FBF0F000F0F9FCB3
:101C700048B9102C07D200222146501E00F018F857
:101C800000206C6070BD012070BD00006C00002061
:101C9000780000207047002809DB00F01F020121B6
:101CA00091404009800000F1E020C0F80011704729
:101CB000F0B40E4B1B680C46C3F30223C3F10705B7
:101CC000042D00D90425191D072901D2002300E0A5
:101CD000DB1E012606FA05F1491E214099409E406F
:101CE000761E16403143F0BC02F0DBB90CED00E08B
:101CF000064900F0070208684FF6FF03184040EA63
:101D00000220034A10430860704700000CED00E019
:101D10000000FA052DE9F8431748016841F08051A9
:101D200001600068154F00F08050012600903E646D
:101D3000FFF7C0FC05464FF47A78114C05E000BF70
:101D4000FFF7B8FC401B40450DD86068C003F7D5CD
:101D50007E64FFF7AFFC0546464607E0FFF7AAFCA6
:101D6000401BB04202D90320BDE8F88360688003BD
:101D7000F4D50020F8E700004038024000000E4291
:101D8000007000402DE9F0470E46050065D0DFF8F1
:101D90001481D8F80000F7B200F00F00B04207D26B
:101DA00088F80070D8F8000000F00F00B04254D15D
:101DB00028683D4C810712D5400703D5206840F4C0
:101DC000E05020602878000703D5206840F4604088
:101DD00020602068A96820F0F0000843206028787F
:101DE000C0072DD0304968680839012812D0022870
:101DF00013D0032811D00968890700292DDA21683A
:101E000021F0030101432160FFF754FC814641F2B8
:101E1000883A0EE009688903EFE709688901ECE771
:101E2000FFF748FCA0EB0901514502D90320BDE8AA
:101E3000F0872068696800F00C00B0EB810FEFD1EB
:101E4000D8F80010404601F00F01B14207D90770E1
:101E5000006800F00F00B04201D00120E7E72878C9
:101E6000400705D52068E96820F4E0500843206069
:101E70002878000706D52068296920F4604040EAE8
:101E8000C100206000F038F82168084AC1F303114E
:101E9000515CC8400649086006480068FFF7DAFE52
:101EA0000020C4E7003C0240083802404C410008D2
:101EB0007800002070000020044805490068096887
:101EC000044AC1F38221515CC84070477800002069
:101ED000083802405C410008044805490068096868
:101EE000044AC1F34231515CC84070477800002079
:101EF000083802405C410008154810B5006810F031
:101F00000C02144813D01449042A0FD0082A0ED109
:101F10000F4C241F2268236802F03F025B0207D5A2
:101F20002068C0F38810A0FB010106E0084610BD40
:101F30002168C1F38811A1FB00010023FEF752F9CB
:101F40002168C1F30141491C4900B0FBF1F010BD0B
:101F5000083802400024F40040787D012DE9F84F54
:101F600004006ED02078DFF84C93C007A9F1040577
:101F70004AD009F104000168C1F38101012908D0A8
:101F80000068C0F3810002280AD1D9F8000040029D
:101F900006D52868800337D560680028E1D033E093
:101FA0006068B0F5803F10D0B0F5A02F286810D041
:101FB00020F480302860286820F480202860606841
:101FC000A8B1FFF777FB06460DE0286840F48030A3
:101FD000F4E740F480202860F7E700BFFFF76AFBD2
:101FE000801B642873D828688003F7D50CE0FFF7BE
:101FF00061FB064605E000BFFFF75CFB801B642821
:10200000F0D828688003F7D42078DFF8AC82800706
:102010004FF0000A3ED5A748001D016811F00C0FD3
:1020200008D00068C0F3810002280BD1D9F8000065
:10203000400207D42868800716D5E068012800D13F
:1020400012E033E1E068B8B10120C8F80000FFF702
:1020500031FB064605E000BFFFF72CFB801B022882
:10206000C0D828688007F7D52868216920F0F800D3
:1020700040EAC10028600DE0C8F800A0FFF71AFB95
:10208000064604E0FFF716FB801B02281FD82868CD
:102090008007F7D42078000722D5864F87486169EA
:1020A000703771B101210160FFF704FB064604E0BF
:1020B000FFF700FB801B022809D838688007F7D596
:1020C0000EE0C0F800A0FFF7F5FA064605E082E052
:1020D000FFF7F0FA801B02287DD838688007F7D414
:1020E0002078400768D5DFF8CCB100270BF13C0B16
:1020F000DBF80000C0000BD4DBF8001041F0805189
:10210000CBF80010DBF80000012700F080500090B1
:102110006B4E3068C00510D4306840F48070306079
:10212000FFF7C8FA009005E0FFF7C4FA0099401ADB
:10213000022850D83068C005F6D55E4EA0686C36CF
:1021400001280FD00528306810D020F00100306041
:10215000306820F004003060A068B8B1FFF7AAFA38
:1021600000900FE0306840F00100F4E740F0040018
:102170003060F7E7FFF79EFA0099411A41F2883084
:10218000814266D830688007F4D50EE0FFF792FAF6
:10219000009007E0FFF78EFA0099411A41F288306B
:1021A000814256D830688007F4D42FB1DBF8001094
:1021B00021F08051CBF80010A069C8B33D49091D3A
:1021C0000968C1F3810102294AD00228504607D08C
:1021D000C8F8600000E03CE0FFF76CFA04463BE022
:1021E0004746C8F86000FFF765FA064605E000BFFD
:1021F000FFF760FA801B02282BD828688001F7D4EB
:10220000D4E907010843A16A2E4A490802EB0141BB
:10221000626A41EA8211084394F82C1040EA016195
:10222000C9F8001001203866FFF744FA044606E0BA
:102230003EE000BFFFF73EFA001B022809D82868DD
:102240008001F7D534E000BFFFF734FA001B022805
:1022500002D90320BDE8F88F28688001F4D427E074
:102260000128F7D0D9F80000E26900F4800191421A
:102270001CD1226A00F03F01914217D147F6C0718C
:10228000626A0140B1EB821F10D1A26A4FF0FF33A6
:1022900000F4403103EB5202B1EB024F06D194F847
:1022A0002C1000F07060B0EB016F01D00120D1E77D
:1022B0000020CFE70438024000004742800E47422A
:1022C000007000400000FFFF70B5040008D0606A95
:1022D000002538B12561656194F8510040B10CE0EA
:1022E000012070BD6068B0F5827FF5D0E561F3E74D
:1022F00084F85050204600F04DF8022084F8510038
:102300002068016821F040010160A088218900F463
:10231000827001F404410843A18901F4006108437B
:10232000217C01F002010843217D01F001010843F5
:10233000218B01F400710843217F01F0380108432B
:1023400094F8201001F080010843218D01F4005120
:10235000084321680860A069042101EA104094F84C
:10236000241001F01001084321684860A06AB0F50C
:10237000005F03D1A08D216880B208612068C16927
:1023800021F40061C1616565012084F851000020DD
:1023900070BD000070B5134886B0016841F48051EB
:1023A00001600068202500F480500095059002200F
:1023B0000121CDE901010524CDE903040A4E694656
:1023C0003046FFF74DF840200090694604943046AF
:1023D000FFF746F86946054800950494FFF740F872
:1023E00006B070BD443802400000024000040240C4
:1023F0002DE9FF4F81B04FF0000A0446CDF800A050
:1024000090F850000E9F1D4693464FF00109564626
:1024100001280ED0012084F85000FFF74BF98046C8
:1024200094F85100616801280DD0B1F5827F08D180
:1024300003E0022005B0BDE8F08FA16809B90428C7
:1024400001D0022606E10298C0B3BBF1000F36D0DE
:10245000A5B394F85100042802D0052084F8510057
:10246000C4F854A0C4F838B0E587A5870299216361
:10247000E586A586C4F840A0C4F844A0A06A4FF43D
:10248000005B584509D12068016821F400510160C2
:102490002068016841F40051016020680168490624
:1024A00003D4016841F040010160E068B0F5006FBD
:1024B000606806D0F0B3012D51D094E0FFE701260B
:1024C000C8E008B1012D43D1206B21680088C860A5
:1024D000206B801C2063E08E401EE08638E0206880
:1024E0008168890719D5E18EB9B1B9F1010F14D10D
:1024F000216B0988C160206B801C2063E08E401E28
:10250000E086E08E4FF0000938B9A06A584504D142
:102510002068016841F48051016020688168C90722
:102520000ED0E18F61B1C068A16B0880A06B801CE8
:10253000A06300E013E0E08F401EE0874FF0010948
:10254000FFF7B8F8A0EB0800B84201D3781C60D1BF
:10255000E08E0028C3D1E08F0028C0D149E0206B75
:10256000216800780873206B401C2063E08E401EB9
:10257000E08638E020688168890719D5E18EB9B115
:10258000B9F1010F14D1216B09780173206B401C44
:102590002063E08E401EE086E08E4FF0000938B9DF
:1025A000A06A584504D12068016841F48051016057
:1025B00020688168C9070CD0E18F51B1C068A16B58
:1025C0000870A06B401CA063E08F401EE0874FF0B6
:1025D0000109FFF76FF8A0EB0800B84202D3781C9E
:1025E00001D016E0AFB1E08E0028C3D1E08F002803
:1025F000C0D1A06A584511D101223B461146204660
:10260000CDF8008000F08EFE28B1606D40F0020031
:10261000606503261EE02068C0680090206881681D
:10262000C90607D5616D41F0020161654FF6EF7192
:102630008160012642463946204600F01FFE18B14F
:1026400001262020606505E0A06818B92068C168EF
:1026500080680090012084F8510084F850A0304632
:10266000E8E610B5401EB0F1807F01D3012010BD17
:102670004FF0E02460610F21601701F012FD00208F
:10268000A06107202061002010BD7047704710B581
:10269000040003D094F83D0010B107E0012010BD04
:1026A000002084F83C00204600F01EF8022084F848
:1026B0003D00211D206800F05BFF012084F84600EA
:1026C00084F83E0084F83F0084F8400084F841001C
:1026D00084F8420084F8430084F8440084F84500FC
:1026E00084F83D00002010BD094808B5016841F09C
:1026F000020101600068012200F002000090002148
:102700001D20FFF7D5FABDE808401D20FFF7C3BA2A
:102710004038024090F83D10012901D00120704757
:10272000022180F83D100168CA6842F00102CA60C7
:1027300000681149884214D0B0F1804F11D00F4980
:1027400088420ED00E4988420BD00E49884208D0EC
:102750000D49884205D00D49884202D00C49884273
:1027600004D1816801F00701062903D0016841F016
:10277000010101600020704700000140000400409A
:1027800000080040000C00400004014000400140EF
:1027900000180040704770B50446006801694FF0AA
:1027A0000005C943890715D4C168C943890711D4F5
:1027B000E91E01610120207720688069800720469A
:1027C00002D0FFF7E7FF04E000F098F8204600F0A1
:1027D00096F8257720680169C943490717D4C1686D
:1027E000C943490713D46FF0040101610220207727
:1027F0002068806910F4407F204602D0FFF7CAFFAE
:1028000004E000F07BF8204600F079F82577206896
:102810000169C943090716D4C168C943090712D41D
:102820006FF008010161042020772068C0698007EB
:10283000204602D0FFF7AEFF04E000F05FF820462C
:1028400000F05DF8257720680169C943C90617D4EF
:10285000C168C943C90613D46FF010010161082093
:1028600020772068C06910F4407F204602D0FFF72F
:1028700091FF04E000F042F8204600F040F8257790
:1028800020680169C943C90708D1C168C943C9079C
:1028900004D1891E0161204600F032F820680169E8
:1028A000C943090609D4C168C943090605D46FF0B4
:1028B000800101612046FFF7E8FE20680169C943F5
:1028C000490609D4C168C943490605D46FF04001DF
:1028D0000161204600F04EF820680169C94389066D
:1028E0000BD4C168C943890607D46FF02001016188
:1028F0002046BDE87040FFF7C9BE70BD7047704705
:1029000030B518480122184C0188184D491C8BB26B
:10291000002103800A2B14D36280018043885B1C52
:1029200043802A7003895B1C9BB20381042B08D36C
:102930000F4B0181198059809980D9801981598163
:10294000998143880A2B05D3A280418083885B1C30
:1029500083806A7083880A2B02D3E2808180AA7008
:1029600030BD0000D00200206400002004000020E0
:102970000E0100207047704770470000F8B50268EC
:1029800004461068D168536910F00F0F4FF000052E
:1029900053D003F0010601F4907737435FD0C207AC
:1029A00005D0CA0503D5226C42F001022264420719
:1029B00005D5DA0703D0226C42F0020222648207B6
:1029C00005D5DA0703D0226C42F004022264020724
:1029D00007D501F02002324303D0226C42F00802F6
:1029E0002264226C002A34D0800604D5880602D5E1
:1029F000204601F023FA20684069216CC0F3801062
:102A0000090700D430B3204601F0D6F920684169A7
:102A100049061BD5416921F040014161A06BA8B175
:102A200059490165A06BFEF74BFC002811D0A06B43
:102A3000016D01B0BDE8F040084783060FD58B0655
:102A40000DD52046BDE8F84001F0F8B92046FFF763
:102A500093FFF8BD2046FFF78FFF2564F8BD266B76
:102A60002023012E53D1C60651D5CE064FD510686E
:102A700050680090506940062BD5A16B08684068EB
:102A80000004000CEAD0A68D8642E7D9E085C8692B
:102A9000B0F5807F18D0D06820F48070D0602068B6
:102AA000416921F0010141612068416921F0400143
:102AB000416184F83E3025632068C16821F010012F
:102AC000C160A06BFEF7B5FBA08DE18D401A81B20D
:102AD00019E0A08DE18D401A81B2E08D0028BDD0B3
:102AE0000029BBD0D06820F49070D0602068426983
:102AF00022F00102426184F83E3025632068C268FA
:102B000022F01002C2602046FFF735FFF8BD05062F
:102B10002BD50D0629D594F83D002128F6D1A068C3
:102B2000B0F5805F01D12069B0B1206A411C2162FB
:102B3000216800784860E08C401E0004000CE084AE
:102B4000E4D12068C16821F08001C1602068C168BB
:102B500041F04001C160F8BD206A0088C0F3080060
:102B60005060206A801C2062E5E74006F3D54806E5
:102B7000F1D5D168204621F04001D16084F83D3084
:102B800000F0DFF8F8BD0000A93D000870B50400B2
:102B900004D094F83D00002510B106E0012070BD7E
:102BA00084F83C50204600F023F8242084F83D00AF
:102BB0002068C16821F40051C160204601F096F9F7
:102BC0002068016921F4904101612068416921F088
:102BD0002A0141612068C16841F40051C160256447
:102BE000202084F83D0084F83E00002070BD0000E5
:102BF00030B5114887B0016841F0100101600068EC
:102C0000012100F0100005904FF4007000900220A8
:102C1000CDE901010724CDE90304084D69462846A2
:102C2000FEF71EFC28150090694604942846FEF71E
:102C300017FC07B030BD00004438024000000240DD
:102C400090F83E30202B0ED159B152B190F83C3063
:102C5000012B08D0012380F83C300023036301F0EE
:102C6000CBB90120704702207047000010B5044620
:102C7000082205492046FFF7E3FF0028F8D1034961
:102C80000120087010BD000040000020300000202E
:102C90002DE9F843044690F83D001F4616460D46C0
:102CA00020284CD1C5B1BEB194F83C00012846D0D3
:102CB000012084F83C004FF00008C4F84080212037
:102CC00084F83D00FEF7F6FCA6848146E684A06801
:102CD000B0F5805F03D004E00120BDE8F8832069EF
:102CE00028B12E465FF0000584F83C800EE00026F7
:102CF000FAE78021204601F09AF9A0B9AEB116F8A2
:102D0000010B21684860E08C401EE084E08C4B465B
:102D10004FF0000200970028EBD14FF04001204611
:102D200001F085F930B10320D7E735F8020BC0F385
:102D30000800E6E7202084F83D000020CDE70220CF
:102D4000CBE77047FEE700000D4810B50B49016066
:102D50000A140C4941600021C0E90421C1610162EB
:102D6000C0E90221FE218161FEF7ACFC002803D0FE
:102D7000BDE81040FDF76CBC10BD000000540040E1
:102D8000DC010020A086010001684A69D243520597
:102D90000FD46FF480624A61002140F8301F202276
:102DA00042738173026942F00402026101730120DF
:102DB00070470020704700002DE9F84F0446C06AB4
:102DC0001E4693460D4621680A6842F480620A60F6
:102DD000082807D0012805D010F5803F02D0206BCD
:102DE000112804D12068016841F4807101604FF01E
:102DF00001195B46002249462046009600F0C6F8BD
:102E00004FF4007840B120680068C00501D5C4F8CF
:102E100040800320BDE8F88F2069DFF884A0B0F57A
:102E2000804F0FD00620216800EAD51747F0F00048
:102E3000086133465A460AF10601204600F0DAF8E6
:102E400058BB03E0E8B240F001001CE02168E8B2A2
:102E5000086133465A465146204600F0CBF8E0B9A7
:102E60002068416981690091016841F480710160C5
:102E70005B46002249462046009600F087F800286D
:102E8000C1D147F0F1002168086133465A465146E6
:102E9000204600F0AFF80028BCD00120BAE70000BF
:102EA00002000100F8B50446C06A1E460D461746EA
:102EB000082807D0012805D010F5803F02D0206BEC
:102EC000122804D12068016841F480710160134622
:102ED00000224FF001112046009600F057F840B153
:102EE00020680068C00502D54FF4007020640320FC
:102EF000F8BD2069B0F5804F0ED00620216800EAA9
:102F0000D51040F0F000086133463A460B492046A0
:102F100000F070F878B902E005F0FE0000E0E8B2D9
:102F200021680861054933463A46891F204600F06A
:102F300061F80028DCD00120F8BD00000800010085
:102F400070B516460D4604460DE02046FFF71CFFFF
:102F500008B1012070BD681C05D0FEF7ABFB801BDB
:102F6000A84207D835B120684069C0434007ECD477
:102F7000002070BD002044F8300F20216173A07341
:102F8000216941F0200121612073E2E72DE9F0473A
:102F90001E4690460D460446C1F30747DDF82090D3
:102FA00008E0701C06D0FEF785FBA0EB0900B042DC
:102FB0000FD876B12068012F18D0806925EA00006B
:102FC0000004000C14D000214145EAD00020BDE8E7
:102FD000F087002044F8300F20216173A07321692D
:102FE00041F02001216120730120F0E74069E5E70D
:102FF0000121E9E72DE9F0479A4691460E4604463D
:1030000000254FF02008C1F3074725E020684069FC
:10301000C043400514D42068016841F40071016088
:1030200021686FF480604861256384F83D8084F8EE
:103030003E50206C40F00400206484F83C501FE0B7
:10304000B9F1FF3F08D0FEF735FBA0EB0A01494577
:103050000CD8B9F1000F09D02068012F13D0806976
:1030600026EA00000004000C0BD0CFE744F8305FE4
:1030700084F80D80A573206940F02000206125733D
:103080000120BDE8F0874069EAE72DE9F04100251D
:1030900090460E460446202717E04069C043C0060C
:1030A0000CD454F8301B6FF01000486144F81059EC
:1030B0006777A577206A2062257717E0FEF7FAFA8E
:1030C000A0EB0800B04208D83EB120684169C9436E
:1030D0004906E2D40020BDE8F08144F8305F677310
:1030E000A573206940F02000206125730120F2E7DC
:1030F00070B516460D4604460DE02046FFF744FE27
:1031000008B1012070BD681C05D0FEF7D3FA801B02
:10311000A84207D835B120684069C0430006ECD406
:10312000002070BD002044F8300F20216173A0738F
:10313000216941F0200121612073E2E770B586B07A
:10314000324C002501208DE8310069463048FEF7F9
:1031500087F9002202210620FEF7AAFD0620FEF7CD
:103160009AFD04208DE8310069462A48FEF778F977
:10317000012202210820FEF79BFD0820FEF78BFDAF
:1031800008208DE8310069462348FEF769F90222DC
:1031900011460920FEF78CFD0920FEF77CFD10206A
:1031A0008DE831001D4E69463046FEF759F903227D
:1031B00002210A20FEF77CFD0A20FEF76CFD20208C
:1031C0008DE8310069463046FEF74AF980208DE8E7
:1031D000310069461248FEF743F904220221172004
:1031E000FEF766FD1720FEF756FDB0148DE831009E
:1031F00069460C48FEF734F9052202212820FEF723
:1032000057FD2820FEF747FD06B070BD00002110D5
:10321000002402400028024000000240000C02404E
:103220000018024000200240FEE77047704700008F
:103230001FB5694600900120019000200290039084
:103240000D48FDF77BFA08B1FDF702FA0A48FDF7D1
:10325000C9FB08B1FDF7FCF90A210748FDF76CFB33
:103260000548FDF71DFB800504D50348FDF71AFB53
:1032700004B010BD0020FBE76C01002038B5044607
:103280001248134B0068B0FBF3F04FF47A735843C5
:1032900000906068B0F5827F0DD10B46009200224D
:1032A0008021204600F03EF870B1606D40F02000B3
:1032B0006065032038BD009830B1401E0090206842
:1032C0008068C0430006F6D5002038BD7800002095
:1032D00000366E0110B5124C1048022120603820D3
:1032E000E0610020A060C4E904100721C4E90A01DC
:1032F000E0604FF400712062A16160624FF482705F
:1033000060602046FEF7E0FF08B1FDF7A1F92068F4
:10331000016841F04001016010BD00000030014033
:10332000300200202DE9F8431E46914688460446A7
:10333000089DFEF7BFF9401B351AFEF7BBF907469B
:1033400025480068C0F3CB30684338E0701C37D0A4
:10335000FEF7B0F9C01BA84203D215B1009860B3C4
:103360002CE02068416821F0E00141606068B0F520
:10337000827F0BD1A068B0F5004F02D0B0F5806F0E
:1033800004D12068016821F040010160A06AB0F515
:10339000005F09D12068016821F4005101602068B4
:1033A000016841F400510160012084F851000020BF
:1033B00084F850000320BDE8F8830025401E0090EB
:1033C0002068816838EA010004D000214945BDD158
:1033D0000020F0E70121F9E7780000207047FEF7B0
:1033E00017BC000070B5564892B00025016841F046
:1033F00080510160006800F08050119051480168D0
:1034000041F4404101600068012600F44040119001
:103410003004CDE9006002248001CDE9064032206D
:1034200008904FF4B470CDE9090407200B9068466A
:10343000FEF794FDFEF76EFC0CA90F2081E8310029
:103440004FF4A0500F90E002109005210CA8FEF759
:1034500099FC3B481038016841F0010101600168A6
:1034600001F001011191016841F002010160016860
:1034700001F002011191016841F00401016001684D
:1034800001F004011191016841F008010160016837
:1034900001F008011191016841F01001016001681B
:1034A00001F010011191016841F0200101600168F3
:1034B00001F020011191016841F0400101600168B3
:1034C00001F040011191016841F080010160016843
:1034D00001F080011191016841F48071016001687F
:1034E00001F480711191016841F40071016001687B
:1034F00001F400711191016841F48061016000687C
:1035000000F480601190104806600D483430016866
:103510008907FCD50168890003D5016841F08071F5
:1035200001600B48094901600621416041F2883180
:103530008160FEF739FB002800D0FEE712B070BDB5
:103540004038024000700040800E4742003000408A
:10355000200300200248016841F4700101607047B7
:1035600088ED00E00148FFF716B90000880200204E
:10357000F0B50268254C264D264E274F274B4FF0BD
:10358000804CA04209D0604507D0A84205D0B04287
:1035900003D0B84201D0984204D122F0700E4A689C
:1035A00042EA0E02A0421BD0604519D0A84217D0B3
:1035B000B04215D0B84213D0984211D0184DA8424D
:1035C0000ED0184DA8420BD0174DA84208D0174D69
:1035D000A84205D0164DA84202D0164DA84203D1EC
:1035E00022F44075CA682A434D6922F080022A43BA
:1035F00002608A68C2620A688262A04201D0984270
:1036000001D10969016301214161F0BD0000014060
:103610000004004000080040000C0040000401408D
:1036200000400140004401400048014000180040B3
:10363000001C00400020004038B5054642F21074DE
:1036400006E02148FEF73CF8042801D0FDF700F819
:1036500004232A46A0211C480094FEF7E7F900281D
:10366000EFD106E01848FEF72BF8042801D0FCF74C
:10367000EFFF0223154AA02113480094FEF7D6F964
:103680000028EFD106E01048FEF71AF8042801D010
:10369000FCF7DEFF0D4A0223921CA1210A48009488
:1036A000FEF7D4F80028EED10849AB78891C084809
:1036B0000A789A4205D14978EA78914201D10621E7
:1036C00000E00021017038BDDC010020480000202E
:1036D0001600002030B50D490B4C8A884D8834F80F
:1036E0001230C31A2B449BB24B8024F81200521C98
:1036F00090B288800A2802D30020888000E000B9B8
:103700000A20B3FBF0F030BD460100202A00002063
:1037100010B501210D48FDF7BBFF0D49002240B156
:103720008A818878012803D109488A70C01C0270F8
:1037300010BD88894FF49673401C80B288819842EE
:10374000EFD38B8101208870EEE70000000002407B
:10375000120000202DE9F05F3149DFF8C8B0A1F177
:103760000E0A9AF80400085C10F0010FC0F340093B
:10377000C0F38008C0F3C006C0F30015C0F34014C6
:10378000C0F3801701D0002200E0012240215846FA
:10379000FDF78BFFB9F1000F01D0002200E00122FC
:1037A00020215846FDF781FFB8F1000F01D000221B
:1037B00000E0012210215846FDF777FF0EB10022EC
:1037C00000E0012208215846FDF76FFF164E4FF426
:1037D00000410DB1002200E001223046FDF765FFF7
:1037E0004FF480410CB1002200E001223046FDF789
:1037F0005CFF4FF400510FB1002200E0012230467F
:10380000FDF753FF9AF80410491CC9B28AF8041056
:10381000092902D900218AF80410BDE8F09F0000B0
:1038200020000020002802400024024004480178C3
:10383000044809B1012200E000220121FDF735BF53
:103840001500002000040240094A0020A2F10801EE
:10385000135C0B54401CC0B20828F9D3044808225A
:1038600010384FF47A7341680248FFF711BA00002C
:1038700040000020DC0200202DE9F84F374C4FF0CB
:1038800000092078C02812D006DC802809D09028B2
:1038900012D0A02815D157E0D02850D0E02810D160
:1038A00057E08F25C020207084F8019009E0902017
:1038B000CF252070012003E0D0209F25207002201A
:1038C0006070DFF89CB0002210215846FDF7EDFE35
:1038D000DFF8908041F2883A012388F8005055467D
:1038E000214A41462148CDF800A0FEF781FD88F825
:1038F000009001231C4A41461C480095FEF778FDC4
:10390000194D012800D02F7888F800900123164A1D
:1039100014491648CDF800A0FEF76AFD012800D032
:103920002E781349627846EA0720000921F8120030
:103930005846BDE8F84F01221021FDF7B6BEA02081
:10394000DF2520700320BBE7E020AF252070042096
:10395000B6E78020EF2520700520B1E72A0000207F
:1039600000000240580000205C00002030020020CF
:103970005A0100202DE9F0414A4E4B4D4B4C308905
:103980004FF40068B8B3002028707088EF1C98B31B
:10399000387881070DD441070BD4000709D40122E0
:1039A00041462046FDF781FE012208212046FDF711
:1039B0007CFEB088C0B3012202212046FDF775FECF
:1039C0003978C8066BD4880669D4480667D4C80716
:1039D00065D1012204212046FDF767FE0122102156
:1039E0002046FDF762FE012220212046FDF75DFE04
:1039F000012240214EE000E017E0012028706978A4
:103A000001B96870012202212046FDF74EFE012215
:103A100020212046FDF749FE012240212046FDF7E6
:103A200044FE708810B32BE006E000224146204699
:103A3000FDF73BFE0022B8E7002204212046FDF7F7
:103A400034FE002210212046FDF72FFE6878002862
:103A500025D1002220212046FDF727FE002240210B
:103A60002046FDF722FE0022022113E000224146FB
:103A70002046FDF71AFE002208212046FDF715FE1C
:103A8000B08800280BD1002204212046FDF70DFE4E
:103A9000002210212046BDE8F041FDF706BEBDE83A
:103AA000F08100003A0100201200002000240240B2
:103AB0002DE9F04F0020DDE90C23DFF8F0E04FF0B6
:103AC000040B4FF008094FF0010AB1F5C02F28D0C0
:103AD000150EC2F30746C2F3072403F0FF08C3F331
:103AE000072CC3F30747D2B2B1F5E02F45D0B1F5AB
:103AF000002F14D12E49C1F808B0C1E90309087597
:103B00002C4848600A774C778E77CD7781F81A80F9
:103B100081F81BC04F7681F818A08EF802A0BDE88E
:103B2000F08F2349244A40391124C1F808B0C1E973
:103B3000030908754A601D4AD21F537843F02A03CF
:103B40005370137843F010031370921C137843F0F2
:103B500010031370138864F34F13138008774877AA
:103B6000887781F81FA0887681F81BA0F02048761E
:103B700081F818A08EF800A0D1E70D480021203868
:103B8000C0F808B0C0E9031901750C49416080F81C
:103B90001C8080F81DC08777190EC1778676C576A0
:103BA000447602768EF801A0B9E7000007000020F5
:103BB000E000002083270806830F08068317080605
:103BC0002DE9F041DFF8CC8010214046FDF760FD83
:103BD000314E01270025A6F12C0498B3A08C401C7F
:103BE00080B2A0840A2801D3A584358008214046EC
:103BF000FDF74EFD38B3E08C401C80B2E0840A280B
:103C000001D3E584758004214046FDF741FD68B38A
:103C10006582208D401C80B22085322801D3258505
:103C2000B5804FF400414046FDF732FD012827D012
:103C3000608D401C80B260850A2801D3658535817E
:103C4000BDE8F08100E008E0E089401C80B2E0813E
:103C50000A28CBD3E5813780C8E7208A401C80B290
:103C600020820A28CFD325827780CCE72585608AF9
:103C7000401C80B260823228D3D36582B780D0E7FF
:103C8000A08A401C80B2A0820A28D9D3A58237819D
:103C9000D6E70000002002403A0100200B4810B592
:103CA0000178012910D1002101700948FDF789F838
:103CB0000028FAD0054B074ABDE810405B1DA2F171
:103CC00018010348FCF71EBF10BD000007000020CC
:103CD000B4010020B80000200B4810B5417801293C
:103CE00010D1002141700948FDF76BF80028FAD087
:103CF000054B074ABDE810405B1DA2F118010348BF
:103D0000FCF700BF10BD000007000020B401002038
:103D1000D80000200B4810B58178012910D100216E
:103D200081700948FDF74DF80028FAD0054B074A85
:103D3000BDE810405B1DA2F118010348FCF7E2BE8C
:103D400010BD000007000020B4010020F800002092
:103D5000114810B5006844F62061B0FBF1F10F483E
:103D6000491E0F4A01600F4802604160092200218C
:103D7000C0E9032181608161FEF789FC08B1FCF78D
:103D800067FC0848FEF7C6FC002803D0BDE81040D9
:103D9000FCF75EBC10BD0000780000206000002031
:103DA000000400408802002010B5806B0021C1850E
:103DB000C184FEF7E1FD10BD0168CA6822F490726B
:103DC000CA6001684A6922F001024A61016B012957
:103DD00004D10168CA6822F01002CA60202180F86C
:103DE0003E10002101637047124810B51049016070
:103DF0004FF4E131416000218160C1600C2201611A
:103E0000C0E90521C161FEF7C1FE08B1FCF720FC45
:103E1000002211462520FDF74BFF2520FDF73BFF33
:103E2000012205490348FEF70BFF0028F8D110BD19
:103E300000100140DC0200204000002010B50446C4
:103E400090F83E00222801D0022010BDA1684FF456
:103E50008052914201D1206920B1A06A91421BD0C9
:103E600049B10AE02168A06A4968C1F308010180EC
:103E7000A06A801C08E0216971B12168496801F0DD
:103E80007F010170A06A401CA062E08D401E00040A
:103E9000000CE08503D01CE021684968F1E7206848
:103EA000C16821F02001C1602068C16821F48071DF
:103EB000C1602068416921F001014161202084F83E
:103EC0003E00206B012806D02046FEF7CFFE0020E2
:103ED0002063002010BD2068C16821F01001C1607E
:103EE000A18D2046FEF747FDF1E7000070B50446BE
:103EF00000680169E26821F44051114301612169C0
:103F0000A068E26908436169114308432168CA68EF
:103F100049F20C639A430243CA6020684169A2696E
:103F200021F440711143416131492068884202D037
:103F30003049884202D1FDF7CFFF01E0FDF7BCFF19
:103F4000E2690023192164253226B2F5004F626828
:103F500028D0A0FB0101930F9200FCF743F9014622
:103F6000B0FBF5F06FF01802504301EB800006EB58
:103F70000010B0FBF5F000F0F002B1FBF5F002EB41
:103F80000012B1FBF5F06FF01803584301EB80000D
:103F900006EB0010B0FBF5F000F00F0021681044B4
:103FA000886070BDA0FB010192185B41FCF71AF913
:103FB0000146B0FBF5F00201B1FBF5F06FF018031C
:103FC000584301EB800006EBC000B0FBF5F000F0B9
:103FD000F80002EB4002B1FBF5F0584301EB800022
:103FE00006EBC000B0FBF5F000F00700D6E70000DC
:103FF000001001400014014081628285C2850021C9
:104000000164222280F83E2080F83C100168CA68D2
:1040100042F48072CA6001684A6942F001024A6152
:104020000068C16841F02001C160002070472DE99F
:10403000F041984617460E460446069D1DE0681C52
:104040001BD02DB1FDF736FBA0EB0800A84214D918
:104050002068C16821F4D071C1602068416921F0F5
:1040600001014161202084F83D0084F83E000020D9
:1040700084F83C000320BDE8F0812068006836EA3F
:10408000000004D00020B842D9D00020F3E701207E
:10409000F9E700000148FEF771BC0000DC020020D7
:1040A000FEE70907090E002804DB00F1E02080F894
:1040B0000014704700F00F0000F1E02080F8141D9C
:1040C000704702E008C8121F08C1002AFAD17047E1
:1040D0007047002001E001C1121F002AFBD1704788
:1040E000FDF79EFDFFF77EF9FFF728F8FCF7B2FA1F
:1040F000FFF72EFEFCF750FAFCF7E8F8FFF7EAF8B6
:10410000FFF772FEFEF720FE0E4C00250E48FDF76D
:1041100078FD6088012806D16580FCF78DF9FCF7F1
:10412000A7F9FCF7BDF9A088012806D1A580FCF706
:10413000E5F9FCF7F3F9FCF70FFAE0880128E5D17F
:10414000E580E3E764000020200300200000000079
:104150000000000001020304060708090000000037
:104160000102030484410008000000207C000000DC
:10417000C2400008004200087C000020B406000095
:10418000D240000800000000000000000000000015
:10419000000000000000000000000000000000001F
:1041A000000000003F065B4F666DFD077F6F8000DB
:1041B00000000000000000003800002000000000A7
:1041C00000000000000000000000000000000000EF
:1041D000000055AA0000AA55000066991122334438
:1041E00000000000000000000000000000000000CF
:1041F0000100000010000000000000000024F40096
:04000005080001AD41
:00000001FF
